:02000002D0002C
:1040000000400D0058EF0D00000006000D000501F6
:084010000401DB0700000000C1
:04401800FCDB0D00C0
:1040200009480A49884208B505D0094A824202D0A7
:10403000121A07F08BFE0748074A0021121A07F0F0
:1040400093FE014808BD00BF9CDE0320A4EC0D00D8
:1040500028E1032028E10320F0E7032070B5074E94
:10406000074C04F0C1FBA41BA4080025A54200D105
:1040700070BD56F8043B98470135F7E75CEC0D003E
:1040800094EC0D0000F096BD08B501F0E9F9BDE82B
:10409000084004F06BBB03F09DBD03F09BBD03F033
:1040A000A1BD03F09FBD0078B0FA80F040097047D1
:1040B00001230370704737B504460846019107F0A5
:1040C000BCFE6368A268451CE818904208D82068C6
:1040D00001992A46184407F039FE60682844606058
:1040E00003B030BD38B584690A4B036005467CB126
:1040F0006368013B63605BB9236820469B6898470F
:10410000A368013BA3601BB923682046DB6898477E
:10411000284638BD5CE80D0008B503F02FFB034BC3
:104120001860BDE8084003F025BD00BFD4E70320B8
:1041300003682BB14268934202D2184607F0EFBDE4
:104140000020704738B50568044645B143689D4274
:1041500005D2284607F071FE01300544256020464F
:1041600038BD10B403460A4639B9D0E900014C1CE9
:104170005C6042545DF8044B70475DF8044BFFF7F8
:104180009ABF000038B504460B46D0E90101256806
:10419000044A091A284403F035FD636801300344DA
:1041A000636038BD10DC0D0038B504460B46D0E91D
:1041B00001012568044A091A284403F023FD6368B5
:1041C00001300344636038BD13DC0D0008B503F013
:1041D000D5FA064B1860064B1B68C01A054B1B68C6
:1041E000984234BF0020012008BD00BF90E10320A9
:1041F00044E303205CE303200A4B93ED007A0A4B6F
:104200001A680A4B1B68534307EE903AB8EEC77A18
:10421000F8EE677AB4EEE77AF1EE10FAACBF01205F
:1042200000207047D4DE032064E303203CE3032036
:104230002DE9F84305F005FC40F6FE72431E93425B
:1042400054D807F099F904460D469FED2B1B45EC19
:10425000104B05F045FE9FED2A1B57EC106B45EC0B
:10426000104B05F03DFE2AA3D3E900233046394622
:1042700059EC108B07F0EAF927A3D3E9002306468F
:104280000F464046494607F0E1F902460B463046E4
:10429000394607F025F8224606460F462B462046AB
:1042A000294607F0D3F91EA3D3E9002307F0CEF97E
:1042B00002460B463046394607F010F81AA3D3E9F8
:1042C000002306460F462046294607F0BFF902465E
:1042D0000B463046394607F003F815A3D3E900230F
:1042E00006F0FEFF41EC100BBDE8F8839FED060BD6
:1042F000FAE700BFAFF300800000000000001040AC
:104300000000000000000840000000000000000065
:104310001656E79EAF0312BD0BE63DBEC53DE03D20
:104320002139D606C736943EA1F83060902B523F13
:10433000D2DF5893427BA13F08B5086807F0EFFC35
:10434000024B003818BF0120187008BD60E303203D
:1043500030B503690B440361021D34CAA542A2BFF4
:1043600014681B1B03611160436801688268043391
:1043700001EB8204A34228BF0B464360C36893420B
:10438000BCBF0133C360D0E9030292FBF0F030BD43
:1043900008B500234377006805F0CCF9BDE8084074
:1043A00003F066B92DE9F04301EB02098FB04945EE
:1043B000CDE9051980460D46164680F0928005A885
:1043C0000F88FFF7BFFE0368994540F28A8005A871
:1043D000FFF7AEFE47F276239F42C4B200F0A980F9
:1043E00027D847F261239F427ED047F264239F4241
:1043F00042D046F670539F4228D1634E634FDFF898
:10440000A081059B99456CD905A8FFF791FEC4B220
:1044100005A8FFF797FE059D3146284607F0DDFC0D
:104420000146E0B9204605F0CFFA05A8FFF78AFE5D
:10443000E7E747F264739F423FD047F276739F42AB
:1044400000F0878047F261739F425FD00023CDE97F
:10445000013302220092B8F81A20194629E03946A1
:10446000284607F0BAFC28B14146284607F0B5FCBB
:104470000028DAD10121D5E70AAB4549079307A8FF
:1044800010230025CDE90853FFF715FE07A82146A4
:10449000FFF778FE204605F0C1FA014607A8FFF7AE
:1044A00083FE089BCDE90155013B0093079B2A46FB
:1044B0001421404600F070FA13E005A8FFF742FE11
:1044C000036899450DD9A4B20121204605F07CFA74
:1044D00005A8FFF72DFE011E18BF0121204605F09B
:1044E00084FA0FB0BDE8F0830AAB079307A8102346
:1044F00028490025CDE90853FFF7DDFD07A821462F
:10450000FFF740FE204605F09CFAC6E705A8FFF736
:1045100019FE03689945E4D9A4B20121204605F0AB
:1045200053FA05A8FFF704FE0146204605F0A0FA5D
:10453000D7E720468DF8284003F09CF803460AA8E8
:1045400023B1154A934201D09847CAE703F08EF889
:10455000C7E705A8FFF7F6FD059B8DF81C405D1B1E
:10456000751B2046CDE90A350C9503F08DF80346FE
:104570000AA907A823B1094A934201D09847B0E796
:1045800003F075F8ADE700BF49E10D0017DC0D0041
:104590001FDC0D0022DC0D006D760D006F760D0026
:1045A0001BDC0D002DE9F0418CB004AF0446052260
:1045B0000068391D03F04EFFB8B3052804D0002071
:1045C0002037BD46BDE8F081B7F80520130A43EA5D
:1045D0000223B7F80720A7F8053099B2130A43EA77
:1045E00002231FFA83F8A7F807300029E7D03B79A8
:1045F00023BB03F039F8E0600246607FB7F807306C
:10460000C0B9B7F80510012914D1092B0FD0C82B58
:1046100001D0042BD4D1012562612046657700F0DA
:1046200069FAFFF779FD03F023F80120C8E70323B7
:104630006377C5E7581F18BF0120C1E7B8F5806F41
:1046400003D92046FFF7A4FEEFE708F1080323F0A3
:1046500007036E46ADEB030D04AD206842462946C4
:1046600003F0F8FE80454FF0000072D1B7F8073034
:10467000E85402F0F9FF3B79E060142B00F09880D9
:104680003BD80F2B00F0948007D8022B3BD0062B91
:1046900044D02046FFF77CFE4BE0112BF9D10023DC
:1046A0003B70B7F807302B449D42C7E9035340D213
:1046B00007F10C002C68FFF745FDFB68B7F8071001
:1046C0005D1B4D1BC7E90535544BFD619C4200F055
:1046D0009F807AD8524B9C4200F0888003339C42E2
:1046E00000F08A80A3F50033063B9C4221D107F1FC
:1046F0001401384602F0BBFF1BE0292B1BD0372BDF
:1047000017D01D2BC5D1637F43B9012363772046A2
:1047100000F0F0F9FFF700FD02F0AAFF0023C82126
:10472000B7F805200091CDE901331946204600F085
:1047300033F901200DE0A3681BB9202003F04AFAE9
:10474000A060B7F80780A8444545C7E9055802D3DB
:104750000020B54634E729462022A06807F087FBF1
:10476000A3680025DD7707F11400FFF7EBFC036871
:1047700043451BD2786920B1BB69984214D207F037
:10478000D2FA85B2206804F0D5FF2368A2685A6384
:104790001D870023637702F067FFA0F59C5008385F
:1047A000C4E903006061C4E72846EAE75025E9E769
:1047B0007B68C3F30F236383B7F80720294620469D
:1047C000FFF7F0FD00236383B3E7164B9C4219D03B
:1047D00003F19F6303F5003303F580739C42A8D176
:1047E00007F11401384602F042FFA2E707F1140175
:1047F000384602F03CFF9CE707F11401384602F00E
:1048000036FF96E707F11401384602F030FF90E7D3
:1048100007F11401384602F02AFF8AE76D657461DA
:104820007274630061636F6E2DE9F04104468CB0D1
:104830000D46FFF771FC637F022B00F0A880237FF9
:10484000628B0133DBB223770AB1012516E0022B1C
:10485000FBD8206804F031FDB8B125B9206804F018
:104860000FFF002811DD2046FFF79CFE05460028BB
:10487000F4D1206804F05EFF02F0FAFE237F013BD2
:10488000237728460CB0BDE8F08102F0EDFE064625
:10489000206804F012FD677F012F054629D120B959
:1048A00066612046FFF774FDE8E7E36844F63822C6
:1048B000F31A934204D92046FFF76AFD0025DDE78D
:1048C00042F21072934203D82369F31A9342BCD97F
:1048D000636940F6B832F31A9342B6D90023CDE9A2
:1048E000013300931A460621204600F055F8666110
:1048F000ABE7002FA9D16269B21A40B140F6B833D4
:104900009A42A2D9206804F015FF6777D6E741F2F2
:1049100088339A4299D9206804F00CFFD4F800C07B
:10492000DCF834E0BCF83880BEF1000F0BD02B4629
:1049300042467146604604F0A1FD431E5D425D4162
:104940008DB966619AE7134B06930CF120070FCFE0
:1049500007AD0FC53B682B704246734606A96046FB
:1049600004F012FEE9E763680593012618462683E2
:1049700007F063FA0022CDE90122059B0090324640
:104980001D21204600F008F82369636176E70025C1
:1049900077E700BF58E70D002DE9F04F83B000AF77
:1049A000044600683D6B884616469946EB4604F07F
:1049B00084FC00287FD0B8F11D0F04D84C4B23FA9B
:1049C00008F3DB0702D4637F012B74D146B9668BF1
:1049D00036B9238B01339BB2002B71D02383268BF6
:1049E000A8F10C03082B16D8D4E90323934238BF4F
:1049F000134603F1420A02F037FEAAEB000000283A
:104A000060DB00212046FFF70FFF02F02DFEAAEB2E
:104A100000000028F5DAB9F1000F5AD06B1D7A6B4F
:104A2000002ABA6B08BF002203EB020A0AF107034F
:104A300023F00703ADEB030DBB6BC7F804D0EA18F6
:104A4000C2F3072376BA43EA02238DF80080ADF85B
:104A50000160ADF80330B9F1000F3CD0002D3AD021
:104A60002A4649460DF1050007F070F9681D7B6B79
:104A70003BB1BB6B2BB11A467B68796B184407F0CE
:104A800065F9002555452AD2AAEB05027B68206806
:104A9000B2F5806F28BF4FF48062591904F0F7FB1C
:104AA0000646002002F0DEFDBEB9206804F042FE9A
:104AB000667702F0DDFD0C37DD46BD46BDE8F08FC0
:104AC00001238BE7217F0029A5D12046FFF7ACFE0B
:104AD000A1E70523A3E70520C9E73544D2E703D0C2
:104AE0002046FFF755FCE6E702F0BEFD2061E2E755
:104AF0004500002000B595B004AB00220193492386
:104B000000930292034B1121FFF746FF15B05DF8A9
:104B100004FB00BF26DD0D00F0B5ADF2244D08AB5F
:104B2000002405460F46059305A84FF480630E49FF
:104B30001646CDE90643FFF7BEFA394605A8FFF74A
:104B400021FB314605A8FFF70CFB069B013B0093B8
:104B5000CDE90144059B224614212846FFF71CFF9E
:104B60000DF2244DF0BD00BF25DC0D0070B5ADF594
:104B7000846D08AB002405460E46059305A84FF446
:104B800080630B49CDE90643FFF795FA314605A846
:104B9000FFF7F8FA069B013B0093CDE90144059B22
:104BA000224610212846FFF7F7FE0DF5846D70BDF3
:104BB00028DC0D002DE9F04104F0DCF94FF4E1317F
:104BC00004F0C6F904F0D6F904F0C9F90028F9D0C8
:104BD00004F0D0F90A2103F03BFC0121072004F086
:104BE000F3FE0121052004F0EFFE0121032004F073
:104BF000EBFE0121022004F0E7FE01210E2004F06B
:104C0000E3FE0121062004F0DFFE01210F2004F065
:104C1000DBFE0221042004F0D7FE9FED340A344865
:104C2000344C01F015F99FED310A334801F010F9C9
:104C300040F6B83002F016FD304B636002F014FD10
:104C4000A0F59C5023682E4A5A630838C4E9030033
:104C5000502260611A87002642F22737A04620685A
:104C600004F068FD667702F0FFFC0546637F012BC8
:104C70000CD002F0F9FC401BB84204D80021404699
:104C8000FFF7D2FDF2E7637F012BE8D11D4A1948F7
:104C90001D4E1E4D0221FFF73FFF1D4A1548022100
:104CA000FFF73AFF13480121FFF760FF3324042088
:104CB00004F0B4FE01463046FFF74AFB013C286091
:104CC000F5D1144B0522214602201A7004F08DFE06
:104CD00021460F2004F089FE0F4B1A684EF6602320
:104CE00053430E4A1360BDE8F08100BF00009644B4
:104CF00078E303202CE10320CCE30320A0DE032093
:104D00002BDC0D003BDC0D0098E1032044E4032084
:104D10003FDC0D0074E30320D8DE03205CE30320B6
:104D2000F0B5ADF2244D08AB002405460F460593BF
:104D300005A84FF480630E491646CDE90643FFF7F8
:104D4000BAF9394605A8FFF71DFA314605A8FFF75D
:104D500019FA069B013B0093CDE90144059B2246CD
:104D600014212846FFF718FE0DF2244DF0BD00BFB8
:104D700025DC0D0010B50868104C06F0D0FF07EEDA
:104D8000900AF8EEE77A0E48FDEEE77A0C2117EE6E
:104D9000902AC4ED007AFFF7C3FF0A4A08480221AF
:104DA000FFF7BAFE226806480221FFF7B9FF064A5C
:104DB00003480221FFF7B0FE10BD00BF3CE3032013
:104DC0002CE103204FDC0D0066DC0D0010B50868F7
:104DD0000E4C06F0A4FF0E4920604EF660234343BC
:104DE0000B6002460D210B48FFF79AFF0A4A09485B
:104DF0000221FFF791FE226806480221FFF790FF8B
:104E0000064A04480221FFF787FE10BDD8DE0320C2
:104E10005CE303202CE103206BDC0D0084DC0D003F
:104E200010B508680C4C06F07AFF0E21024620608F
:104E30000A48FFF775FF0A4A08480221FFF76CFE8F
:104E4000226806480221FFF76BFF064A0348022149
:104E5000FFF762FE10BD00BF44DF03202CE10320FA
:104E60008ADC0D009DDC0D0010B508680C4C06F0C6
:104E700056FF0F21024620600A48FFF751FF0A4AF9
:104E800008480221FFF748FE226806480221FFF782
:104E900047FF064A03480221FFF73EFE10BD00BF50
:104EA000D4DE03202CE10320A2DC0D0066DC0D0023
:104EB0002DE9F041ADF5846D08AB002405460E46A2
:104EC000059305A84FF48063154910EE108ACDE9CB
:104ED0000643FFF7F0F805A83146FFF753F9DDE97F
:104EE0000661059B40468F1B1E4406F057FB0D4A8A
:104EF000CDE900013946304602F084FE431C069895
:104F000003440693013B0093CDE90144059B2246EF
:104F100014212846FFF740FD0DF5846DBDE8F081B2
:104F200025DC0D00BCDC0D0008B52DED028B214BFE
:104F3000214893ED000A214B9FED218AD3ED007AA1
:104F4000B8EE400A0A2120EE270AFFF7B1FF1D4BF9
:104F500019481A680C21FFF7E3FE1B4B164893ED26
:104F6000000AB8EE400A0D2180EE080AFFF7A0FF04
:104F7000164B11480E2193ED000AB8EE400A80EE60
:104F8000080AFFF795FF124B0B48102193ED000A1A
:104F9000B8EE400A80EE080AFFF78AFF0D4B06487C
:104FA000112193ED000AFFF783FFBDEC028B012076
:104FB00008BD00BFD0DE03202CE1032048DF032022
:104FC00000007A443CE3032048E3032054E3032039
:104FD0004CE3032094E10320F0B5ADF2244D08AB7F
:104FE000002405460F46059305A84FF480630E493B
:104FF0001646CDE90643FFF75EF8394605A8FFF7E8
:10500000C1F8314605A8FFF7ACF8069B013B0093B9
:10501000CDE90144059B224614212846FFF7BCFC3C
:105020000DF2244DF0BD00BF25DC0D0030B5124D52
:10503000124C13492A7820788DB00E2303FB0212FC
:10504000009203FB00130F4A282102A802F0DAFDA8
:105050002B78237003F08EFF02A903F0BCF902AA9B
:1050600009480221FFF7B8FF084A07480221FFF765
:1050700053FD0DB030BD00BF74E3032040E30320B7
:10508000DDDE0320C2DC0D002CE1032024E10D0055
:105090002DE9F8430021022004F0A7FC00210F2095
:1050A00004F0A3FC02F06AFB294D2A4C2860206022
:1050B000042004F0B3FC01462748284E284FDFF8AF
:1050C000B480DFF8A890FFF743F9306033684BB342
:1050D0002A6823689B1A3A68934223D2D8ED007A53
:1050E0004846B8EE670A00F0EBFE484600F046FD81
:1050F000D8ED007A1B48B8EE670A00F0E1FE1948C7
:1051000000F03CFD02F03AFB2060042004F086FC35
:1051100001461148FFF71CF9002130601248FFF7E3
:1051200083FBD3E7114800F013FF0E4800F010FF97
:10513000322003F02FFA2A6823689B1A3A689342B8
:105140009DBF0B4A136001200020BDE8F88300BF1B
:1051500070E3032090E1032098E1032044E403205E
:10516000C4DE0320CCE303202CE1032078E30320FA
:1051700048E3032040DF03202DE9F047002102200F
:1051800004F033FC00210F2004F02FFC02F0F6FAAB
:105190005D4B5E4D93ED007A5D4B5E4CD3ED006A46
:1051A0005D4E2860B8EEC77A2060C7EE267A5B486D
:1051B0005A4FDFF890910021B2464FF00008FCEE04
:1051C000E77AC6ED007A00F0F8FC5548002100F0BF
:1051D000F4FC384600F0EFFCDAF80030514E98420B
:1051E00070D04F4800F0E7FCDAF80030984269D000
:1051F000296823685B1A31688B4263D24A4E02F0F9
:10520000BDFAD6ED007A2060B8EE670A384600F0A5
:1052100057FE384600F0B2FC96ED000A4048B8EE62
:10522000400A00F04DFE3E4800F0A8FC1120FEF7B9
:10523000FFFF51EC100B06F001FD3C4BD3E90221BE
:10524000D3ED047A07EE100A914277EE277AA8BFD1
:105250005A68C3ED047AA8BFD2ED006A5A68A4BFA9
:1052600077EEE67AC3ED047A106018685A68996898
:1052700093ED047A00EB810C0432624528BF0246AC
:105280005A60DA688A42BCBF0132DA60D3ED037A31
:10529000F8EEE77AC7EE277A17EE900A06F07EF965
:1052A00042464B4606F0D2F915A3D3E9002306F097
:1052B000CDF906F0C3FC1E4B002118601D48FFF716
:1052C000B3FA86E7154800F043FE154800F040FEAB
:1052D000322003F05FF92968236832685B1A934231
:1052E0000AD2154A1360154B154A19601368013329
:1052F00013600120BDE8F0870020FBE7AFF30080DA
:10530000333333333333F03F3CE3032070E3032084
:1053100048DF032090E10320D0DE032078E3032060
:10532000CCE30320CCDE032040DF032030E4032065
:105330008CE103202CE1032054E3032044E3032009
:1053400064E30320000024402DE9F047374B384D3B
:105350001B68384E384C394FDFF8E890DFF8E880AA
:10536000DFF8F8A0B3F57A7F8CBF5B004AF6C8730C
:105370002B6002F003FA324B30601B6820605B4206
:1053800030483B60002100F018FC2F48002100F05D
:1053900014FC484600F00FFC3B6898422CD0404675
:1053A00000F009FC3B68984226D0326823689B1ABB
:1053B0002A68934220D202F0E1F92060042004F030
:1053C0002DFB01465046FEF7C3FF204B9FED200A00
:1053D0001860484600F074FD484600F0CFFB9FED92
:1053E0001C0A404600F06CFD404600F0C7FB00215F
:1053F0001848FFF719FACCE7124800F0A9FD124847
:1054000000F0A6FD0121022004F0EFFA0F20012197
:1054100004F0EBFA326823689B1A2A6893429DBF16
:105420000D4A136001200020BDE8F08748E3032007
:10543000C8DE032070E3032090E1032058E303203B
:10544000D0DE032078E30320CCE3032044E40320F0
:1054500000007AC42CE103204CE3032098E10320F0
:105460002DE9F0432DED028B754C76488BB0002171
:10547000FFF7DAF92378013B052B23D8DFE803F0A7
:105480007D034956626E704B1B78022B01D0FFF7EB
:10549000CDFD6E4B1B68002B14DDFEF797FE88B127
:1054A0006B4BD3ED007A6B4BF8EEE77A93ED007A15
:1054B000F4EEC77AF1EE10FA04D8FEF79DFE08B1BB
:1054C0000323237003F050F810F0010440F0A9808A
:1054D000614D03F049F82B68984200F0A2805F4FBD
:1054E0005F4EDFF8AC91DFF8AC813268A24250DD4C
:1054F00099F8000004F0A5FA07EE900AF8EEE77AB2
:10550000C8F800000A20E7EC017A013403F042F801
:10551000EBE74D4B1B78032B01D0FFF787FDFFF71F
:10552000B7FD08B90123CCE70423CAE7464B1B7833
:10553000042B01D0FFF77AFDFFF71EFE0028F1D003
:105540000523BEE7404B1B78052B01D0FFF76EFD0E
:10555000FFF7FAFE0028E5D00623B2E73A4B1B78A6
:10556000062B01D0FFF762FDFFF7DEFC0028D9D043
:105570003C4B00221A700223A3E7334B1B78012B0C
:1055800001D0FFF753FD384A2E480221FFF7C4FA35
:10559000FEE732493548364C00F092F932682F491F
:1055A000324884ED000A00F04DF9324B206883ED5B
:1055B000000A05F0F3FF1EA3D3E9002306F046F826
:1055C0001DA3D3E9002305F08BFE06F037FB214E27
:1055D00029493060684603F02BFDDDED027A274C47
:1055E000F8EEE77A6846C4ED007A03F007F824493C
:1055F0002448B0EE408A96ED000A01F008FA94EDD6
:10560000000A21491F4801F002FA20491D48B0EE66
:10561000480A01F0FCF91B4801F002FA02F0A4FF6D
:1056200028600BB0BDEC028BBDE8F083AFF30080C7
:105630000EBE30992A18A5BF1904560E2DDA554012
:1056400074E303202CE1032040E303203CE3032028
:1056500044DF032094E103204CE10320ACE103206C
:105660009CDE032060E30320D0DC0D0075E3032003
:1056700068E303206CE3032070E6032050E303207B
:10568000E7DC0D0020E40320F0DC0D00F5DC0D006C
:10569000DCDE03202CE403202DE9FF412D4D2E4EAE
:1056A0002846002404F096F805F11C0003F0A4FB42
:1056B0006C632C8732462949284604F03FFA284B70
:1056C00028499C61C3E90054274D9C83C3E90244E7
:1056D000C3E904440122284601F078F9052732463F
:1056E0004FF0040821492846012504F027FA3A46DC
:1056F0002946CDE90175CDF8008003231C4800F050
:105700006FFB294606230E22CDE90175CDF80080F6
:10571000184800F065FB6420FEF7BFFC164B192209
:10572000C3E90224C3E90000C820FEF7B6FC134B0E
:105730003222C3E90224124CC3E90000204600F0E3
:1057400023F810493246204604B0BDE8F04104F089
:10575000F5B900BF50E1032028E10320E5400D002A
:105760002CE10320FADC0D0020E40320E9690D00A0
:1057700078E30320CCE3032098E1032030E4032006
:1057800075E303208B570D0070477047DFED087AF3
:105790000023934205DAB1EC017A013377EE877A80
:1057A000F7E707EE102AB8EEC70A87EE800A7047BF
:1057B000000000002DE970432DED028B0C461546CC
:1057C000FFF7E4FF0026B0EE408A002005F0E6FE79
:1057D000AE428046894613DAF4EC017A77EEC87A55
:1057E000013617EE900A05F0D9FE02460B4605F089
:1057F0002DFF42464B4605F073FD06F01FFAE5E724
:1058000007EE905AF8EEE77A17EE900A05F0C6FE1A
:105810000B4B002205F062FD02460B46404649460E
:1058200006F03EF841EC100B04F010FD51EC100BAB
:1058300006F004FABDEC028B00EE100ABDE870839E
:105840000000F03FF8B50D46FFF7A0FF294610EE27
:10585000106AFFF7AFFF10EE100A05F09FFE0A4B2B
:10586000002205F0F3FE044630460D4605F096FE94
:1058700002460B462046294606F012F806F0DEF9ED
:1058800000EE100AF8BD00BF0000594010B501201D
:105890000B460446904210DA93ED007AD3ED017A7C
:1058A000B4EEE77AF1EE10FAC2BF83ED017AC3EDF0
:1058B000007A044604330130ECE7012CE7D110BD37
:1058C000F8B59300073323F0070300AFADEB030DEA
:1058D0006C4625460023934205DA51F8046B45F8DF
:1058E000046B0133F7E72146FFF7D0FF02EBD273D9
:1058F0005B109B0012F0010F234405BF13ED010A5A
:10590000D3ED007A93ED000A30EE270A04BFF6EEDD
:10591000007A20EE270ABD46F8BD0379082B1BD874
:10592000DFE803F005080B0E111A141A17000368BC
:105930001B69184703685B69FBE703689B69F8E725
:105940000368DB69F5E703681B6AF2E703685B6AD3
:10595000EFE703689B6AECE77047062391FBF3F2DD
:1059600002FB1313052B1CD8DFE803F003070B0F12
:10597000131703689B6804211847036805219B6877
:10598000FAE7036801219B68F6E7036803219B6837
:10599000F2E7036802219B68EEE7036806219B6833
:1059A000EAE77047036801F0070101399B6806299F
:1059B00005D8DFE801F006080A0C0E1012000121DC
:1059C00018470521FCE70421FAE70621F8E7022140
:1059D000F6E70A21F4E70821F2E70921F0E7F8B534
:1059E0000579042D0F4607D0082D17D0032D03D0BD
:1059F000062D14BF02250325441D002614F8010BB3
:105A000047FA06F3E178DB0748BF81F00101013670
:105A100003F0EBFFF3B29D42F0D8F8BD0425EBE7AD
:105A200010B590F8502003680446002A14BF0221E4
:105A300000219B68984794F850202368002A14BFDF
:105A4000032101219B6820469847206B01F086FEC8
:105A500094F850202368002A20469B68BDE8104037
:105A600014BF022100211847D0ED067AF5EEC07A66
:105A7000F1EE10FACCBF836BC36B1847036801F0DB
:105A8000030102299B6806D0032906D0012914BF0F
:105A90000221032118470121FCE70021FAE7032333
:105AA00091FBF3F303EB4303C91A0129024606D025
:105AB000022904D031B903689B6804211847136890
:105AC0009B68FBE77047036801F0030102299B68AC
:105AD00006D0032906D0012914BF05210621184745
:105AE0000A21FCE70921FAE710B50379044693B1CE
:105AF000036800219B68984794F83500FF280AD076
:105B0000012103F061FF94F8341094F83500BDE8EA
:105B1000104003F06ABF10BD10B50379044663B3AB
:105B20004079012103F050FFA079012103F04CFFDF
:105B30002379042B01D0082B18D1E079012103F03F
:105B400043FF207A012103F03FFF94F83500FF283E
:105B500013D0012103F038FF94F8341094F8350085
:105B600081F00101BDE8104003F03FBF032B01D0DD
:105B7000062BEAD1E0790121E5E710BD38B5836A4B
:105B800004460BB9002038BD01F0F0FDE36AA26ABB
:105B9000C31A93420546F5D394F85030216943B1B6
:105BA0000131236821612046DB689847E5620120C6
:105BB000E9E70139F5E70069704700230364836270
:105BC0000023C0E904118361704700002DE9F0470C
:105BD000D0ED067A67EEA77AD0E90467044617EE9F
:105BE000900A05F0DBFC8046206A894605F0D6FC69
:105BF00002460B4605F074FB02460B4640464946FA
:105C000005F04EFEBD1B05F0D1FF002D57D1012838
:105C100060DC0023A562A3612564BDE8F087002B4A
:105C200008DDA84203DA94F85030002B52D14042EC
:105C300020644FE04ED0A8424CDA94F85020002A5D
:105C400048D05B42236445E044D0F61B864241DDE8
:105C500094F85020002A3DD1F3E7A06C05F09EFC9B
:105C600002460B4606460F4605F03AFB8046504674
:105C7000894605F081FC2A4B002205F0E7FC294B00
:105C8000002205F02DFB02460B464046494605F032
:105C900007FE02460B463046394605F01FFB05F06D
:105CA000CDFF94ED137A07EE900AF4EEC77AF1EE89
:105CB00010FAD8BFF0EE477AC4ED127A17E0236CE1
:105CC000ADDC002BC0DDF61B8642B0DD94F8503011
:105CD000002BACD1D4F840A0BAF1000FBDD1002DFB
:105CE000636CA364D4BF0025012584F8505094ED63
:105CF000127ADFED0D6AFCEEC77A0AF10103C4EDFA
:105D00000A7AC6EE877A236494F85030C4ED067A96
:105D1000002B82D1F1EE677AC4ED067A7DE700BFF1
:105D2000000010400000F03F0024744942698A429C
:105D300002D04161FFF74ABF704703691944FFF77A
:105D4000F5BF00000000000010B52DED028B90EDB6
:105D5000087AB4EE407AF1EE10FA0446B0EE408ACA
:105D600032D0C7EE006AD0ED107AF8EEE77A67EE2F
:105D7000A67AFDEEE77AC0ED107A10EE100A05F073
:105D80000DFC02460B4600204FF0804105F088FDD7
:105D900041EC100B04F05AFA0DA3D3E9002351ECA7
:105DA000100B05F053FC0CA3D3E9002305F04EFCC7
:105DB00005F044FF84ED088ABDEC028B6064204648
:105DC000BDE81040FFF702BFBDEC028B10BD00BF65
:105DD0006F1283C0CAA1E53F0000000080842E41FD
:105DE000F8B54FF0010C194D83719DF820709DF8A6
:105DF000183005604FF07E5600250171C0F830C0A4
:105E000000214FF0FF0CC3719DF81C308561C0E983
:105E100004110446C66105624662816280F835C09D
:105E2000C16242710372016445648564C66480F88E
:105E300050104172418101730FB1FFF76DFE204692
:105E4000B7EE000AFFF780FF2046F8BD7CDD0D00AD
:105E5000D0B5D0ED077AF4EE407AF1EE10FA0446B0
:105E600029D09FED157A036C80ED070AC7EE007A02
:105E7000002BC0ED137A1EDDD0ED067A67EEA77A0F
:105E800017EE900A05F08AFB0646206A0F4605F0D9
:105E900085FB02460B4605F023FA02460B463046C8
:105EA000394605F0FDFC05F081FE20642046BDE882
:105EB000D040FFF78BBED0BD002474490000000025
:105EC00010B52DED028BD0ED067AF4EE407AF1EEAE
:105ED00010FA04461AD0D0ED077AB1EE678AB4EE14
:105EE000C08AF1EE10FA08DCF4EEC07AF1EE10FA96
:105EF00054BFB0EE408AB0EE678AB5EE408AF1EE4C
:105F000010FA06D10023A36284ED068ABDEC028B51
:105F100010BD18EE100A05F041FB02460B460AA11F
:105F2000D1E9000105F0BCFC21F00043194605F061
:105F300065FEB5EEC08AF1EE10FACCBF0123002356
:105F4000A06284F85030DFE70000000080842E411A
:105F5000D0B52DED028B90ED068AB5EE408AF1EEBC
:105F600010FA044624D068EE087A17EE900A05F07D
:105F700015FB0646206A0F4605F010FB02460B464D
:105F800005F0AEF902460B463046394605F088FC6E
:105F900005F00CFEB5EEC08ABDEC028BF1EE10FAF6
:105FA000CCBF411CC1432046BDE8D040FFF7C5BE71
:105FB000BDEC028BD0BD01757047000038B5846917
:105FC0000A4B036005467CB16368013B63605BB9C3
:105FD000236820469B689847A368013BA3601BB9D0
:105FE00023682046DB689847284638BD5CE80D00EA
:105FF00010B50446FFF7E2FF20461C2103F0A3FD85
:10600000204610BD30B5064D0560C0E901130025DE
:10601000039B057541F28835C0E90332856130BDC7
:10602000B4DE0D002DE9F84F0D461746804602F00C
:10603000A1FF1E491E4EDFF87CA0DFF87CB002F005
:10604000CAF90024304603F08CFB60BB052C2AD033
:1060500098F81430C3B102F08DFF514602F0A8F950
:1060600002F088FF294602F0A3F902F083FF5946A7
:1060700002F09EF902F07EFF0A228146214602F0DC
:10608000B4F9484602F09BF9304603F053FB002375
:10609000BAB22946304603F0F1F94FF47A7002F0B3
:1060A00079FA0134CEE7BDE8F88F00BFA8DD0D0016
:1060B00048E40320C0DD0D00D6DD0D00F8B50E4F1D
:1060C00004460026384603F0DBFA054690B9A3697A
:1060D000B3420FDD012002F05DFAA3690136B3423D
:1060E000F0DC207D28B102F045FF044902F073F98D
:1060F0002846F8BD0120FCE748E40320EADD0D0056
:106100002DE9F047037D0646884614464BB102F060
:1061100031FF264902F05FF902F02CFF244902F01A
:106120005AF9DFF8A090002540F2BB2A484603F058
:10613000A7FA78B1484603F05CF9337DC7B22BB1BA
:1061400002F018FF036839469B6898476755013588
:106150005545EBD1337D23B102F00CFF154902F018
:106160003AF900236355144B98450DD11349204645
:1061700005F090FE9FED120A0028F7EE007A18BF96
:10618000B0EE670ABDE8F0877C21204605F018FED6
:1061900048B1013005F0C0FD51EC100B05F04EFD8B
:1061A00000EE100AEEE79FED060AEBE731DE0D0088
:1061B0001DDE0D0030DE0D003CDE0D0041DE0D0069
:1061C0005F42A2CD48E4032070B52DED028B04465A
:1061D0004168224842F234321D46002303F04EF952
:1061E0002046616842F23432FFF71CFF1B4803F07F
:1061F00064F848B32946194802F0DAF82046FFF758
:106200005DFF054638B9154803F094FA0025BDEC4A
:10621000028B284670BD642001F0DCFC1049024668
:1062200006462046FFF76CFF3046B0EE408A01F08C
:10623000D9FCDFED0C7AB4EE678AF1EE10FAE2D009
:10624000064803F077FAE2E7237D002BDBD002F06B
:1062500091FE054902F0BFF8D5E700BF48E40320EE
:106260003CDE0D005F42A2CD44DE0D0070B52DED89
:10627000028B044600230E4615464168494842F207
:10628000343203F0FBF82046616842F23432FFF703
:10629000C9FE444803F011F8002879D0A1684148AC
:1062A00002F086F840493F4802F082F8E1683D4834
:1062B00002F07EF83D493B4802F07AF83146394811
:1062C00002F076F83A49374802F072F82946354824
:1062D00002F06EF83749334802F06AF8237DB3B311
:1062E00002F048FE344902F076F802F043FE3349EA
:1062F00002F071F802F03EFEA16802F059F802F0D7
:1063000039FE294902F054F802F034FEE16802F047
:106310004FF802F02FFE254902F04AF802F02AFE5B
:10632000314602F045F802F025FE214902F040F81E
:1063300002F020FE294602F03BF802F01BFE1D4948
:1063400002F036F802F016FE1D4902F044F820462D
:10635000FFF7B4FE48B913489FED1A8A03F0EAF933
:10636000B0EE480ABDEC028B70BD4FF42F7001F007
:1063700031FC1549024605462046FFF7C1FE094893
:10638000B0EE408A03F0D6F9284601F02BFCE7E78F
:10639000237D002BDFD002F0EDFD0C4902F01BF84D
:1063A000D9E700BF48E4032062DE0D0065DE0D0082
:1063B0005CDF0D009ADF0D007DDE0D0067DE0D0055
:1063C0007CDE0D005F42A2CD82DE0D0085DE0D0079
:1063D00010B5054C204603F0FDF92046034A044958
:1063E000BDE8104003F0AABB48E4032028E10320E5
:1063F000BD5F0D0010B5064B0360643304460361B6
:1064000001F03CFD204601F0FFFE204610BD00BF1C
:1064100070E60D0010B50446FFF7ECFF20464C2156
:1064200003F091FB204610BD10B50446006808B18A
:10643000FDF737FEE06801F0D5FB606810B104217C
:1064400003F081FB204610BD38B50446012060747E
:1064500094F91000E56800EB800045F8201094F9ED
:106460001010E06801EB810100EB810181ED020A6F
:1064700094F91010E06801EB810100EB81014A60A2
:1064800094F91020E16802EB820201EB8202D360F2
:1064900094F91030E26803EB830302EB8303049A60
:1064A0001A61237C01335BB20A2B237408DDA37CC1
:1064B00023B102F05FFD034901F08DFF0A2323742D
:1064C00038BD00BFC0DE0D0010B510EE100A86B05A
:1064D0000C4605F063F802460B4601A80A4901F094
:1064E00089FB01A81422002310F8011B202906D0E3
:1064F000E1540133DBB211B9E15406B010BD013AE9
:1065000012F0FF02F0D1F8E7FFDE0D002DE9F04FA9
:106510000C4689B04C49DFF85481DFF85491DFF81C
:1065200054A10546204605F062FC002695F910307E
:106530009E426ADAEB6806EB860B03EB8B0393ED66
:10654000020A03A92846FFF7BFFFEB6803A90091E1
:1065500053F82B3022464146204601F04BFBEB68B6
:106560004FEA8B073B44DB6843B32246494620464B
:1065700001F040FBEB683B441B69002B38D00A203C
:1065800093FBF0F191FBF0FC00FB1C1C00FB1131B4
:10659000C9B2642293FBF2F292FBF0FE00FB1E22D2
:1065A00000915FFA8CF32949D2B202A801F022FBD4
:1065B000274902AB2246204601F01CFBEB681F4432
:1065C0007B6823B123492246204601F013FB224673
:1065D0002149204601F00EFB013695F91030F6B244
:1065E0009E4222460ADA1D49204601F003FB9DE740
:1065F00022465146204601F0FDFADFE716492046C3
:1066000001F0F8FA00232B7490E7AB7CC3B102F0E1
:10661000B1FC134901F0DFFE02F0ACFC114901F0BE
:10662000DAFE02F0A7FC214601F0D5FE02F0A2FC42
:106630000B4901F0D0FE02F09DFC0B4901F0CBFEAE
:1066400009B0BDE8F08F00BF04DF0D002CDF0D00A6
:1066500033DF0D003EDF0D004DDF0D0051DF0D007B
:1066600031DE0D0055DF0D0025E10D0006DF0D00C8
:1066700019DF0D0038DF0D002DE9F04F0C460546FF
:1066800089B05249DFF87481DFF8749120461646CC
:106690001F4605F0ACFBAB684D4A4E49204601F061
:1066A000A9FA33464C4900972246204601F0A2FA47
:1066B0004A49494F2246204601F09CFA002695F9A6
:1066C00010309E4264DAEB6806EB860B03EB8B031B
:1066D00093ED020A03A92846FFF7F6FEEB6803A92B
:1066E000009153F82B3022463946204601F082FAB9
:1066F000EB684FEA8B0A53445B6823B1224641465C
:10670000204601F077FAEB685344DB683BB322463E
:106710004946204601F06EFAEB6853441B6953B3B7
:106720000A2093FBF0F191FBF0FC00FB1C1C00FB2A
:106730001131C9B2642293FBF2F292FBF0FE00FB2E
:106740001E2200915FFA8CF32549D2B202A801F013
:1067500051FA244902AB2246204601F04BFA95F942
:1067600010300136F6B29E4222460ADA1E49204611
:1067700001F040FAA3E71D492246204601F03AFA0B
:10678000EDE71B49204601F035FA00232B7496E70C
:10679000AB7CC3B102F0EEFB164901F01CFE02F027
:1067A000E9FB154901F017FE02F0E4FB214601F078
:1067B00012FE02F0DFFB0F4901F00DFE02F0DAFBE2
:1067C000024901F008FE09B0BDE8F08F25E10D0097
:1067D0005EDF0D0072DF0D007EDF0D0086DF0D0035
:1067E0002CDF0D0033DF0D0051DF0D0038DF0D0011
:1067F00098DF0D0031DE0D0055DF0D008BDF0D0041
:1068000091DF0D002DE9F74304464FF42F701E462B
:106810000F46904601F0DEF9E37C013B012B054673
:1068200026D8014643463A462046FFF725FFA37C7B
:1068300023B102F09FFB114901F0CDFD60680368B0
:106840000096D3F8009039462B464246C847074683
:10685000284601F0C7F91EB10121304603F073F953
:10686000002307B163743846237403B0BDE8F08396
:1068700001462046FFF74AFED9E700BF9FDF0D0023
:1068800010B504460120FDF706FC034610B1054A89
:1068900012780270226820461146BDE81040FFF7CA
:1068A000B1BF00BFE8E4032070B505460C4684B1D3
:1068B000E1682846FFF7F8FFE369A66823B104F111
:1068C00014010322084698472046FDF7E8FB3446AA
:1068D000EDE770BDF0B58DB0044601A80D46174632
:1068E0001E4601F057F903980130FDF7D6FB0199D8
:1068F000206005F07CFA2A4633463946E67405A83E
:1069000000F048FDC82001F065F9E06005A800F03E
:1069100065FC0023C4E901050899237406A8FFF764
:10692000C3FF01A801F0D5FC0DB0F0BD38B50025BE
:1069300004460582FFF7CEFF204638BD10B5104B48
:10694000104C00221A70204602F044FF20460E4CE4
:106950000E4A0F4903F0F2F8204602F03BFF2046B2
:106960000C4C0A4A0A4903F0E9F8204601F02CFCD5
:106970002046064A0849BDE8104003F0DFB800BFD2
:10698000E8E40320CCE4032064E4032028E10320AE
:10699000BD5F0D0080E40320F5630D0073B5037245
:1069A00004465020CDE900211E4601F013F9606035
:1069B0001420FDF770FB054620B1DDE900213346C8
:1069C000FFF7B4FF256002B070BD000038B50025A8
:1069D0000446134645728572024AFFF7DFFF2046E0
:1069E00038BD00BFAFDF0D0038B50446406801F088
:1069F000F9F8256835B12846FFF716FD1421284619
:106A000003F0A1F8204638BD0068FFF71DBD07B5AB
:106A1000002300931A46FFF7F7FF03B05DF804FB6D
:106A20000068FFF72DBF01757047000070B506467E
:106A30002DED028B142001F0CDF80546142001F055
:106A4000C9F80446304605F0F8F93246002302380A
:106A5000984214DD12F8011B0D293AD111780A2948
:106A600037D151780D2934D191780A2931D10433A5
:106A7000F1181422284605F0FAF900232B750A2193
:106A8000284605F09DF9064628B30A21013005F095
:106A900097F900B33146204605F0A9F9204605F0E4
:106AA000CCF92044002300F8013C204605F034F9DD
:106AB00051EC100B05F0C2F808EE100A204601F068
:106AC00091F8284601F08EF8B0EE480ABDEC028B32
:106AD00070BD0133BCE79FED018AF5E75F42A2CDAF
:106AE00030B5074D05600025C0E901130575039B0E
:106AF00041F2883585610525C0E90332057730BD4F
:106B000054E10D002DE9F74FDFF88C80DFF88CA001
:106B1000DFF88CB004460D461746002640465FFA63
:106B200086F902F0CAFB88BB237F4B452ED9237D13
:106B3000CBB102F01FFA514601F03AFC02F01AFA0A
:106B4000294601F035FC02F015FA594601F030FCF7
:106B500002F010FA0A224946019001F046FC019B1E
:106B6000184601F02CFC0023BAB22946404602F038
:106B700085FC237D23B102F0FDF9064901F02BFCD1
:106B80004FF47A7001F006FD0136C7E703B0BDE8A7
:106B9000F08F00BFCADF0D00ECE40320C0DD0D0064
:106BA000D6DD0D002DE9F0414B1E0C4601F52F728C
:106BB0000546002103F8011F9342FBD12B7D4BB109
:106BC00002F0D8F9144901F006FC02F0D3F9134998
:106BD00001F001FC124F002640F2BB28384602F0BB
:106BE0004FFD70B1384602F004FCA0552B7D2BB14F
:106BF00002F0C0F90368A15D9B68984701364645DD
:106C0000ECD12B7D33B102F0B5F9BDE8F041054977
:106C100001F0E1BBBDE8F08131DE0D001DDE0D00AD
:106C2000ECE4032030DE0D00F8B50E4F04460026DC
:106C3000384602F025FD054690B9A369B3420FDD41
:106C4000012001F0A7FCA3690136B342F0DC207DEE
:106C500028B102F08FF9044901F0BDFB2846F8BDC8
:106C60000120FCE7ECE40320EADD0D00F8B50F4657
:106C70000269416804461D46FFF744FF784802F068
:106C80001CFB0646002800F0E1807649744801F0BC
:106C90008FFB3946724801F08BFB7349704801F055
:106CA00087FB72496E4801F083FB61686C4801F014
:106CB0007FFB6F496A4801F07BFB6E49684801F031
:106CC00077FBA168664801F073FB6949644801F0ED
:106CD0006FFB6949624801F06BFBE168604801F0B5
:106CE00067FB63495E4801F063FB64495C4801F05F
:106CF0005FFB63495A4801F05BFB284605F09DF8AD
:106D000060490646564801F053FB0A223146544872
:106D100001F06BFB5C49524801F04AFB29465048A0
:106D200001F046FB52494E4801F042FB4C4802F04C
:106D3000C3FA237D002B69D002F01CF9534901F0FE
:106D40004AFB02F017F9474901F032FB02F012F951
:106D5000394601F02DFB02F00DF9434901F028FB03
:106D600002F008F9414901F023FB02F003F96168E0
:106D700001F01EFB02F0FEF83D4901F019FB02F0A4
:106D8000F9F83C4901F014FB02F0F4F8A16801F0B5
:106D90000FFB02F0EFF8364901F00AFB02F0EAF8C7
:106DA000354901F005FB02F0E5F8E16801F000FB70
:106DB00002F0E0F82E4901F0FBFA02F0DBF82F496F
:106DC00001F0F6FA02F0D6F82D4901F0F1FA02F0DE
:106DD000D1F82C4901F0ECFA02F0CCF80A22314645
:106DE00001F003FB02F0C6F8274901F0E1FA02F0D6
:106DF000C1F8294601F0DCFA02F0BCF81C4901F0A8
:106E0000D7FA02F0B7F8224901F0E5FA2046FFF779
:106E10000BFF237D2BB90124114802F08BFC204687
:106E2000F8BD02F0A7F81B490D4D01F0D4FA284631
:106E300002F026FC0028EED0284602F0DAFA0446DA
:106E400002F098F8E1B201F0B7FAF0E7247D002CE7
:106E5000E2D002F08FF8104901F0BDFA3446DBE7CA
:106E6000ECE40320DBDF0D00F3DF0D00FFDF0D009E
:106E700023E10D0006E00D0013E00D0022E00D00FF
:106E800036E00D0057E00D0021E10D0068E00D0037
:106E900084E00D00A2E00D00BEE00D0070B52DED08
:106EA000028B044600230E4615464168674850226F
:106EB00002F0E4FA204661685022FFF723FE63489F
:106EC00002F0FBF9002800F0B88061495F4801F04A
:106ED0006FFA31465D4801F06BFA5E495B4801F09C
:106EE00067FA2946594801F063FA5B49574801F0AF
:106EF0005FFA5A49554801F05BFA5949534801F085
:106F000057FA0A225021514801F06FFA55494F486B
:106F100001F04EFA54494D4801F04AFAA1684B4835
:106F200001F046FA4F49494801F042FA4F494748B3
:106F300001F03EFAE168454801F03AFA4949434810
:106F400001F036FA4A49414801F032FA237D002B1C
:106F500050D002F00FF83E4901F02AFA02F00AF888
:106F6000314601F025FA02F005F83A4901F020FA1D
:106F700002F000F8294601F01BFA01F0FBFF364948
:106F800001F016FA01F0F6FF344901F011FA01F0B0
:106F9000F1FF334901F00CFA01F0ECFF0A22502115
:106FA00001F023FA01F0E6FF2E4901F001FA01F0A9
:106FB000E1FF2D4901F0FCF901F0DCFFA16801F0CF
:106FC000F7F901F0D7FF274901F0F2F901F0D2FFFC
:106FD000264901F0EDF901F0CDFFE16801F0E8F993
:106FE00001F0C8FF1F4901F0E3F901F0C3FF204998
:106FF00001F0DEF92046FFF717FE48B913489FED70
:107000001D8A02F097FBB0EE480ABDEC028B70BD02
:107010004FF42F7000F0DEFD014605462046FFF7D5
:10702000C1FD2846FFF702FD0848B0EE408A02F095
:1070300081FB284600F0D6FDE5E7237D002BDDD05F
:1070400001F098FF0C4901F0C6F9D7E7ECE4032002
:10705000E8E00D00FDE00D00FFE00D00F3DF0D00A6
:10706000FFDF0D0023E10D0006E00D0013E00D0031
:1070700003E10D005F42A2CD26E10D0010B5054CE5
:10708000204602F0A7FB2046034A0449BDE8104011
:1070900002F054BDECE4032028E10320BD5F0D00A5
:1070A00003681847012A03D0022A03D00020704742
:1070B0000160FBE70B680360F8E7000013B51C20D4
:1070C000FCF7E9FF044648B1064B07491B680093EB
:1070D0000968064B42F23432FEF794FF204602B0B4
:1070E00010BD00BF90E503208CE503205EDF0D009E
:1070F00013B52020FCF7CFFF044640B1054B0649ED
:107100001B6800930968054B5022FFF7E9FC2046F5
:1071100002B010BD90E503208CE503205EDF0D007A
:1071200013B51C20FCF7B7FF044648B1064B0749CE
:107130001B6800930968064B42F2343200F0ACF948
:10714000204602B010BD00BF90E503208CE503206F
:107150005EDF0D0013B51420FCF79DFF044640B11F
:10716000054B06491B680093002309681A4600F086
:107170006DFA204602B010BD90E503208CE5032097
:1071800010B58368044613B1032201469847204690
:1071900010BD000010B586B002AB0291044693E822
:1071A00003006A4682E8030094E8030083E80300D2
:1071B00092E80300A2680492064AA260E26805927F
:1071C000054AE26084E803001846FFF7D9FF20462D
:1071D00006B010BDA5700D00A1700D0070B500F1D6
:1071E0000801C2680B463AB1157C0478A5422ABF53
:1071F0001346D2689268F6E7994204D000781A7C68
:10720000904238BF0B46DA690AB902F052FDBDE878
:1072100070401A6A03F1140010478B6870B5164667
:1072200004460D1D01225BB130781A7C904234BFB8
:107230009868D8681D4634BF012200220346F2E751
:1072400092B1CA68AA4203D1C4E90035204670BD94
:10725000284602F0D0FC3378027C9A424FF00003BB
:10726000F2D3C4E90003F1E72846F4E72DE9F0433F
:1072700000F10408856885B006468946444655B144
:1072800099F800302A7C9A4236BFEB68AB682546F5
:107290002C461D46F3E7A04504D099F80020237C36
:1072A0009A422ED22420FCF7F6FE99F8009080F83E
:1072B00010900023A045074600F11002C36125D1BC
:1072C00073691BB131690B7C4B4509D3314602A868
:1072D000FFF7A3FFDDE90241002951D0002C4DD179
:1072E00088454BD0387C0B7C98422CBF0020012075
:1072F00043460A46394602F080FC736901337361E4
:107300003C4604F1140005B0BDE8F083237C0192F3
:107310004B4518D9F3689C4209D0204602F06BFC1B
:10732000037C019A4B4505D2C36853B904462146F4
:107330001C46D1E7314602A8FFF76FFFDDE90234B2
:10734000F5E72346F3E71BD231698C420BD0204688
:1073500002F03EFC037C019A4B45054605D9E368E3
:1073600053B921461D462C46B6E7314602A8FFF721
:1073700054FFDDE90251F6E70146F4E70120B7E7E3
:1073800007F11400FFF7FCFE3846FCF788FE27469D
:10739000B6E700002DE9F341051D0026174600F170
:1073A0000802C0E90362C0E9052604468846067261
:1073B00003700DF10701012328468DF80730FFF710
:1073C00055FF1649FFF7E6FE0DF1070128468DF837
:1073D0000760FFF74BFF1249FFF7DCFE02230DF1B8
:1073E000070128468DF80730FFF740FF0D49FFF7EA
:1073F000D1FE03230DF1070128468DF80730FFF772
:1074000035FF0949FFF7C6FE084BC3F80080084B5B
:1074100020461F6002B0BDE8F08100BFBD700D00C6
:10742000F1700D0021710D0055710D008CE50320E8
:1074300090E5032010B50E4C204602F0CBF9204613
:107440000C4C0D4A0D4902F079FB204602F0C2F9BE
:1074500020460B4C084A094902F070FB204600F018
:10746000B3FE2046044A0749BDE8104002F066BB5F
:1074700070E5032008E5032028E10320BD5F0D002F
:1074800024E50320F5630D009FED010A704700BF5E
:107490005F42A2CD0175704730B5064D0560C0E969
:1074A00001130025039B057541F28835C0E90332BD
:1074B000856130BD14E20D0010B5054C204600F08A
:1074C00083FE2046034A0449BDE8104002F036BB63
:1074D00094E5032028E10320F5630D0010B5044670
:1074E0004A68024902F0BEF9204610BD70E603204A
:1074F000F0B58FB00146064602A81F46FFF7EEFF23
:1075000002A801F099FCA0B9337D23B101F032FD4E
:10751000274900F060FFF323009337223D23A92180
:1075200008A809AD01F0ACFC0FCD03AC0FC42B686B
:107530002370002240F2BD211E4800F077FE002299
:1075400042F234311B4800F04DFC03AD1A4B089356
:107550000FCD09AC0FC42B681648237042F23432A9
:1075600008A900F07FFE58B9337D23B101F002FD78
:10757000124900F030FF0F4800F080FC002014E0BA
:10758000002FF1D0384604F058FC3946024609482D
:1075900000F082FC0028E7D0064800F0DDFC00285F
:1075A000E2D0044800F06AFC01200FB0F0BD00BF3B
:1075B00060E10D0094E5032058E70D00ECE10D00BB
:1075C0009FED010A704700BF5F42A2CD0174704772
:1075D00030B585B01A46089B1B788DF8003002A89C
:1075E0003C2301F059FA0020029C00F047FA20B138
:1075F000637813B900F0BEFAFAE76378BFF35B8FE4
:10760000651CABB90025039C7CB16368013B6360DA
:107610005BB9236820469B689847A368013BA36039
:107620001BB923682046DB689847284605B030BD63
:10763000002000F023FA20B12B7813B900F09AFA59
:10764000FAE72378012BDDD1257BDCE710B5044C6C
:107650000460C0E901130024029B0474C36010BDE0
:1076600028E20D0000F096BF00F088B87047704720
:107670007047000003065ABF024B53F82000002059
:10768000704700BF34E20D0003065ABF024B53F8A7
:1076900020000020704700BF34E40D0008B5024B05
:1076A0001B689B68019308BD6802030008B5024B84
:1076B0001B68DB68019308BD6802030008B5024B34
:1076C0001B685B68019308BD2C02030008B5024BE0
:1076D0001B689B68019308BD2C02030008B5024B90
:1076E0001B68DB68019308BD2C02030008B5024B40
:1076F0001B681B69019308BD2C02030008B5024BEF
:107700001B685B69019308BD2C02030008B5024B9E
:107710001B689B6A019308BD2C02030008B5024B4D
:107720001B681B6B019308BD2C02030008B5024BBC
:107730001B689B6F019308BD2C02030008B5024B28
:107740001B685B69019308BD6C02030008B5024B1E
:107750001B685B68019308BD1802030008B5024B63
:107760001B68DB68019308BD1802030008B5024BD3
:107770001B681B69019308BD1802030008B5024B82
:107780001B685B69019308BD1802030008B5024B32
:107790001B689B6D019308BD1802030008B5024BDE
:1077A0001B685B6E019308BD1802030008B5024B0D
:1077B0001B685B6C019308BD4802030008B5024BCF
:1077C0001B689B6C019308BD4802030008B5024B7F
:1077D0001B685B69019308BD6402030008B5024B96
:1077E0001B681B6A019308BD6402030008B5024BC5
:1077F0001B685B6A019308BD6402030008B5024B75
:107800001B689B6A019308BD6402030008B5024B24
:107810001B681B68019308BD3C02030008B5024BBE
:107820001B68DB68019308BD3C02030008B5024BEE
:107830001B681B69019308BD3C02030008B5024B9D
:107840001B685B69019308BD3C02030008B5024B4D
:107850001B689B69019308BD3C02030008B5024BFD
:107860001B68DB69019308BD3C02030008B5024BAD
:107870001B681B6A019308BD3C02030008B5024B5C
:107880001B689B6A019308BD3C02030008B5024BCC
:107890001B681B6A019308BD2802030008B5024B50
:1078A0001B685B6A019308BD2802030008B5024B00
:1078B0001B689B6A019308BD2802030008B5024BB0
:1078C0001B68DB6A019308BD2802030008B5024B60
:1078D0001B681B6B019308BD2802030008B5024B0F
:1078E0001B685B6B019308BD2802030008B5024BBF
:1078F0001B681B6C019308BD2802030008B5024BEE
:107900001B685B68019308BD3802030008B5024B91
:107910001B689B69019308BD3802030008B5024B40
:107920001B68DB69019308BD3802030008B5024BF0
:107930001B681B6A019308BD3802030008B5024B9F
:107940001B689B6A019308BD3802030008B5024B0F
:107950001B68DB6A019308BD3802030008B5024BBF
:107960001B681B6B019308BD3802030008B5024B6E
:107970001B685B6B019308BD3802030008B5024B1E
:107980001B689B6B019308BD3802030008B5024BCE
:107990001B68DB69019308BD3002030008B5024B88
:1079A0001B681B6A019308BD3002030008B5024B37
:1079B0001B685B6C019308BD7402030008B5024BA1
:1079C0001B681B68019308BD4C02030008B5024BFD
:1079D0001B685B68019308BD4C02030008B5024BAD
:1079E0001B681B69019308BD4C02030008B5024BDC
:1079F0001B685B69019308BD4C02030008B5024B8C
:107A00001B689B69019308BD4C02030008B5024B3B
:107A10001B68DB69019308BD4C02030008B5024BEB
:107A20001B681B6A019308BD4C02030008B5024B9A
:107A30001B685B6A019308BD4C02030008B5024B4A
:107A40001B681B6D019308BD6002030008B5024B63
:107A50001B681B68019308BD2002030008B5024B98
:107A60001B685B68019308BD2002030008B5024B48
:107A70001B685B69019308BD2002030008B5024B37
:107A80001B68DB6C019308BD2002030008B5024BA4
:107A90001B685B6D019308BD2002030008B5024B13
:107AA0001B689B6D019308BD2002030008B5034BC2
:107AB0001B68D3F88830019308BD00002002030042
:107AC00008B5034B1B68D3F89430019308BD000040
:107AD0002002030008B5024B1B685B68019308BDD8
:107AE0004002030008B5024B1B689B68019308BD68
:107AF0004002030008B5024B1B68DB68019308BD18
:107B00004002030008B5024B1B681B69019308BDC6
:107B10004002030008B5024B1B685B69019308BD76
:107B20004002030008B5024B1B689B69019308BD26
:107B30004002030008B5024B1B68DB69019308BDD6
:107B40004002030008B5024B1B681B6A019308BD85
:107B50004002030008B5024B1B681B6B019308BD74
:107B60004002030008B5024B1B685B6B019308BD24
:107B70004002030008B5024B1B689B68019308BDD7
:107B80004402030008B5024B1B685B69019308BD02
:107B90004402030008B5024B1B68DB69019308BD72
:107BA0004402030008B5024B1B681B6A019308BD21
:107BB0004402030008B5024B1B681B6B019308BD10
:107BC0004402030008B5024B1B68DB6B019308BD40
:107BD0004402030008B5024B1B681B68019308BDF3
:107BE0001C02030008B5024B1B685B68019308BDCB
:107BF0001C02030008B5024B1B68DB68019308BD3B
:107C00001C02030008B5024B1B68DB69019308BD29
:107C10001C02030008B5024B1B68DB6A019308BD18
:107C20001C02030008B5024B1B681B6B019308BDC7
:107C30001C02030008B5024B1B68DB6B019308BDF7
:107C40001C02030008B5024B1B685B6C019308BD66
:107C50001C02030008B5024B1B68DB6C019308BDD6
:107C60001C020300002240681146FFF76BBF002290
:107C700040681146FFF776BF40680022FFF76ABFF1
:107C80004068002281F00101FFF754BF00234068E3
:107C90001A461946FFF746BF002340681A461946A0
:107CA000FFF738BF002240681146FFF72BBF0022C4
:107CB00040681146FFF716BF406800220221FFF717
:107CC00019BF002340681A46FFF704BF024B032286
:107CD0005A60024A1A607047E0E503203CE60D0056
:107CE00010B5044608462170FFF750FE002363607C
:107CF000204610BD10B50446006818B1FFF772FFAA
:107D00000023236010BD10B50446FFF7F3FF2046A3
:107D100010BD000010B5094B094C022200201A606A
:107D2000084B2060A080A071A360FFF797FE20465B
:107D3000054A0649BDE8104001F000BFF4E5032004
:107D4000E8E503200000FFFF28E10320077D0D0088
:107D500010B40468246BA4465DF8044B60470368C4
:107D60009B6C1847808E7047028FC08E101A704728
:107D700007B503688DF80710DB6801220DF10701D4
:107D8000984703B05DF804FB10B503681B6904460F
:107D9000984728B1E38EE26B591CE186D05C10BD98
:107DA0004FF0FF30FBE710B503681B6904469847A6
:107DB00018B1E38EE26BD05C10BD4FF0FF30FBE7F3
:107DC000704710B403460846DC6BD98E1A8F0368DF
:107DD000521ADB6821445DF8044B1847A0F11000EB
:107DE000FFF7EFBF70B503688CB05B6A04460E46C0
:107DF0001546984701231C22002105A8029303F091
:107E0000B3FF40F61C233046ADF81430FFF7F6FC04
:107E10001122ADF8160002210A20FFF7AFFD00285D
:107E2000606125DB0422009202AB40F6FF71FFF790
:107E30006DFDE8B995B10390ADF8100003A9E8B263
:107E4000FFF77CFCA0B906230093606903AB41F205
:107E50000B0240F6FF71FFF759FD48B960691C221B
:107E600005A9FFF74BFD18B9656401200CB070BD82
:107E7000236820465B6A98470020F7E710B5044660
:107E80004069002801DBFFF749FD4FF0FF336361D4
:107E90000023E386238710BD70B50546C06BEE8EC8
:107EA00068B12B6C9C1B944228BF14462246304478
:107EB00003F04CFFEB8E2344EB86204670BD044656
:107EC000F1E7D0B503681B6904460F46164698478C
:107ED00090B1236820461B699847E38EE16B864288
:107EE000A8BF064619443246384603F02FFFE38EFA
:107EF0003344E3863046D0BD4FF0FF36FAE700004A
:107F000070B50446054B44F8043B01F120050646D4
:107F10000FCD0FC42B682370304670BD58E70D009D
:107F2000F0B59646026889B0976A0A4A02921C1D0B
:107F30008C4606460FCC03AD0FC523682B70BDF8E9
:107F400038300093724602AB61463046B84709B0FC
:107F5000F0BD00BF58E70D00F0B5036889B09F6A17
:107F60000C4B029300F1200604460FCE03AD0FC563
:107F700033682B70A38EE28EE16B0093204602AB38
:107F8000B84723680546DB6920469847284609B06C
:107F9000F0BD00BF58E70D00F0B54378022B8DB05F
:107FA00005460C46174604D1011D204600F074FF1B
:107FB00022E00A2B25D11122002101A803F0D4FED2
:107FC000AB6803B305F1080301AE05F1180C18689E
:107FD0005968324603C2083363451646F7D1062373
:107FE00001A906A807AE8DF8143000F013FF0FCEDC
:107FF00004340FC4336823701FB16888FFF7F6FBA1
:1080000038800DB0F0BDEB68002BDBD14FF6FF7070
:108010002E69FFF7E3FB8642D4D105F11401C4E7D2
:108020002DE9F04117468EB00022064601AB084606
:1080300011460192FFF73AFB041E20DB019B2BB394
:108040005B691BB302A800F0D7FE019B00225869B0
:1080500002A9FFF7A1FF02A800F0EEFEB0B133685D
:1080600003ADD3F838800B4B08930FCD09AC0FC488
:108070002B6823703A4608A93046C0470446019849
:10808000FFF70CFB20460EB0BDE8F0814FF0FF3447
:10809000F5E700BF58E70D002DE9F047D0F8149040
:1080A000B9F1000F90B005460E4690461C463CDBE9
:1080B00000293AD04FF01C0A09AF52460021384639
:1080C00003F052FECDF80CA0DCB100224FF47A7020
:1080D000B4FBF0F3CDE9043200FB13435843102303
:1080E00007920690009341F206026B4440F6FF713E
:1080F0004846FFF70BFC044620B1204610B0BDE80F
:10810000F087082403ABCDE9007368692346424633
:108110003146FFF71BFC041EEFDB05F1340205F1CD
:108120001C013846FFF738FFE7E74FF0FF34E4E77C
:1081300038B5054614462B7D062B084610D140F66F
:108140001C231380FFF75AFB08342B1D24F8060C60
:10815000143553F8042B44F8042BAB42F9D138BD45
:10816000042BFCD14FF404731380FFF747FB6080AE
:108170006868FFF733FB6060F1E72DE9F0438BB0EF
:1081800003AF4FF01C09984604460D4616460021E1
:108190004A46384603F0E8FDBDF848103A464046E6
:1081A000FFF7C6FF9DF80D3053B1CDE90079606946
:1081B000002332462946FFF7D9FB0BB0BDE8F08318
:1081C0004FF0FF30F9E7000038B500254FF47A731F
:1081D000C0E901530B4B03F108026C3303614FF00C
:1081E000FF330446026043611C3000F005FE4FF48B
:1081F0000073C4E91035E5862587E56384F84850A7
:10820000204638BD68E60D0010B590F848300446A9
:1082100023B1C06B10B1012101F095FC0023E36391
:1082200084F848302364E386238710BD70B5044684
:1082300016460D46FFF7E8FF0023E66323642EB1E0
:108240002564206C003818BF012070BD002DF8D0C7
:108250002846FBF722FF0123E06384F8483000281A
:10826000EFD0EDE7F8B51746C26B05460C461AB9D4
:10827000016C09B1FFF7DAFF04340FCC05F12006D9
:108280000FC6236833700023286CAF86EB862B87DC
:10829000F8BD37B5C26B04460B462AB9016C19B15B
:1082A0000193FFF7C3FF019BE16B0022E286228767
:1082B00041B1226C32B12068056B2046A8470028E6
:1082C000C8BF208723681B69204603B0BDE8304043
:1082D000184710B504460068FFF784FC204610BD1F
:1082E00010B5036804469B689847A368013BA360E8
:1082F0002BB923682046DB68BDE81040184710BD45
:1083000010B50446006808B1FFF758FA204610BDC2
:108310000B68036013B15A6801325A60704710B598
:108320000446006828B14368013B43600BB9FFF77E
:10833000D7FF204610BD000010B5064C0023204694
:108340002360FFF733FA2046034A0449BDE8104092
:1083500001F0F4BBF8E5032028E1032001830D00C0
:10836000F8B506460D468F180024BD420CD0336880
:1083700015F8011B9B6830469847031E01DB1C441F
:10838000F3E7002C08BF1C462046F8BD13B5044691
:10839000084659B1019103F050FD23680199DB684B
:1083A0000246204602B0BDE81040184702B010BD9A
:1083B00008B5FFF7EBFF08BD03689B68184738B5A1
:1083C0000D210546FFF7F8FF0A2104462846FFF76E
:1083D000F3FF204438BD38B50546FFF7D7FF044604
:1083E0002846FFF7ECFF204438BD30B58BB00023A2
:1083F0008DF82430012A98BF0A2209AC0D46B1FB42
:10840000F2F101FB125303F0FF03092B94BF303349
:108410003733DBB2AA4204F8013DEFD92146FFF71A
:10842000B5FF0BB030BD10B50446FFF7A7F9E0600B
:10843000236820465B699847002808DAFFF79EF911
:10844000E368C01AA3689842F2D34FF0FF3010BD22
:1084500081607047F8B506460D4617460024BC42B9
:1084600007D03046FFF7DFFF031E02DB2B55013438
:10847000F5E72046F8BD0000014B024A1A6070473C
:10848000FCE50320E0E60D002DE9F041154ADFF898
:108490006080D2E90032C01842EB0101124AD2E9F1
:1084A0000032C61841EB0207D8E90023BB4208BFDF
:1084B000B2428CB013D003A96846CDE90067FFF73C
:1084C000C9FB089B094D03F26C7303AC08930FCCF6
:1084D0000FC50FCC0FC5C8E9006723682B600CB02F
:1084E000BDE8F08130E6032028E6032004E60320FF
:1084F00038E6032008B50020FFF75CFB28B1FFF742
:1085000041FB80F00100C0B208BD0120FCE710B5BE
:108510000020FFF73BF90446A0B9FFF797FA0128BE
:1085200010D12046FFF7BAFA60B9FFF7E3FF10B9A0
:10853000FFF720FBF9E7FFF7DDFFBDE81040002063
:10854000FFF724B9204610BD1FB5FFF7E0FF10224A
:108550000021684603F008FC00216846FFF71EF979
:10856000009805B05DF804FB08B5FFF7EDFFC117F3
:10857000FFF78AFF014B586808BD00BF04E60320DF
:10858000024B1A68024B1A60704700BF4CDF032091
:1085900000E603200021FFF769BA10B50446FEF794
:1085A000EFFD204610BD13B50B460246D0E9000191
:1085B0006C4684E8030093E8030082E8030094E833
:1085C000030083E8030002B010BD00000348044A22
:1085D00004490023836001F0B1BA00BF40E60320E4
:1085E00028E103209B850D007047007D704710B582
:1085F0002821044601F0A7FA204610BD037D7BB177
:10860000C369002B0CDB07EE903A9FED077AF8EE7A
:10861000E77A87EE870ADFED057A20EE270A7047B2
:10862000BFEE000A704700BF00FF7F470000C8424E
:10863000037D63B18369B3F1004F08D007EE903A30
:108640009FED047AF8EEE77A87EE870A70479FED90
:10865000020A70470000C84200000000037D7BB1A1
:10866000436A002B0CDB07EE903A9FED077AF8EE99
:10867000E77A87EE870ADFED057A20EE270A704752
:10868000BFEE000A704700BF00FF7F470000C842EE
:10869000037D63B1036AB3F1004F08D007EE903A4F
:1086A0009FED047AF8EEE77A87EE870A70479FED30
:1086B000020A70470000C8420000000070B50C1E9E
:1086C00006460ADA2D21FFF777FE614205460A22A7
:1086D0003046FFF78AFE284470BD21460025F6E7A4
:1086E00070B50C46054681682046FFF7E7FF2C2150
:1086F00006462046FFF760FEE96806442046FFF77D
:10870000DDFF304470BDA0F10400FFF7E9BF30B5D4
:108710000D4600F110040FCD0FC495E8030084E866
:108720000300012030BD0000014B1860704700BFFE
:1087300054DF032008B50B4B43B100F01BFC03686A
:108740001B699847002801DDAFF30080064B43B159
:1087500000F014FD03681B699847002801DDAFF3A2
:10876000008008BD000000000000000008B5FFF711
:10877000E1FFFFF703F8014B186008BDD4E70320C1
:108780000248034A0349121A03F0E0BA00F4032036
:1087900004F40320A0EC0D0007B5002300931A4653
:1087A0006FF07701FFF78CF903B05DF804FB000070
:1087B00007B543880A2B08D0502B0BD1094B1B68F7
:1087C0004BB103B05DF804EB1847FFF7E5FF03B0CA
:1087D0005DF804FB002300931A466FF07701FFF762
:1087E0006FF9F4E754E6032038B5124C1248134DE4
:1087F0000021FFF727FA2368AB42114B0CBF01227F
:1088000000221A7002D0FFF7BBFF2560FEF79EFF23
:10881000044603F0B1FA0B4B13B12046AFF30080CE
:1088200000210848FFF7CEF9BDE83840064800218E
:10883000FFF73CB900F4032029870D001E1C279A7E
:1088400050E6032000000000B1870D0070470020B3
:10885000704710B51021044601F075F9204610BD8F
:1088600008B5FFF7F6FF08BD30B500224FF69C743F
:10887000026084808D888C800C68858004600A602A
:1088800030BD10B504460068FFF7ACF9204610BDB6
:1088900038B5C468F4B12378022B03D104F10C007D
:1088A000FFF7EFFF656835B12846FEF769FC102138
:1088B000284601F048F9A56835B12846FEF760FC66
:1088C0001021284601F03FF920461421BDE8384028
:1088D00001F039B938BD73B50E46044656F8043B6D
:1088E00000930D4601A83146FFF712FD019A009B47
:1088F0006260236001A8002301930093FFF70FFD3E
:108900003046FFF70CFD2846082101F01CF92046EF
:1089100002B070BD826810B50AB901F0CAF9BDE8AD
:108920001040C368184708B5006800F11001FFF750
:10893000F1FF08BD826810B50AB901F0BAF9BDE8C7
:108940001040C368184708B5006800F11001FFF730
:10895000F1FF08BD38B500230446036010200D4622
:10896000FBF799FB28B10123C0E90133024B0360F7
:10897000C5602060204638BD3CE70D0038B50023B7
:1089800083608B6804460D462BB102229847EB6842
:10899000E360AB68A360204638BD0000F0B589B045
:1089A00004686846FFF760FF4FF00203D4E84F2FDA
:1089B000002A03D1C4E8413F0029F7D125D104F1B1
:1089C0000C0569462846FFF74FFFBFF35B8F012375
:1089D0006370002004F10803BFF35B8F53E8006F5E
:1089E00043E80002002AF9D1BFF35B8F6EB1FFF7B5
:1089F00045F878B129463046FFF78CFF3046FEF740
:108A0000BFFB1021304601F09EF86846FFF739FFA2
:108A100009B0F0BD314602A8FFF7B0FFE068B4F935
:108A2000105008B103F0ECF906901020ADF81C507E
:108A3000FBF731FB0546E8B1002787601820FBF7FC
:108A40002AFB044688B10146876002A8FFF7ABFD08
:108A5000049BA268A360059B049206A9E268E360F8
:108A600004F110000592FFF7FFFE084BEB60084B86
:108A70002C60AB6006A8FFF704FF02A8FEF780FB9E
:108A8000002229460348FFF701F8B7E727890D00C0
:108A9000BD8B0D00D1910D002DE9F0478AB0054640
:108AA0009DF848900C4617469846FFF76BF807AEBE
:108AB000824638BB4FF62E73059005A93046ADF8B7
:108AC0001830FFF7D1FE1420FBF7E5FA044648B151
:108AD000022303700123C0E901AA437031460C3020
:108AE000FFF7C2FE2846214640F8044BFFF732FF4D
:108AF0003046FFF7C6FE05A8FFF7C3FE28460AB0BA
:108B0000BDE8F0870C234FF0000A1420CDE908AA35
:108B10000793FBF7C0FA014628B1C0E901AA80F823
:108B200000A080F801A004A80391FFF713FF224BD7
:108B300008930820FBF7AFFA824628B1039B40F860
:108B4000043B04A9FFF7E4FB00965FFA89F3424671
:108B500039462046CDF824A0FFF724F8B8B9039B86
:108B60005B7803F0FF0293B94FF69C7305A903A845
:108B70000592ADF81830FFF711FF05A8FFF781FE49
:108B800005A80999FFF7A7FE06A8FFF7C8FB039BF6
:108B9000059304A906A8FFF7BBFB059B069A2B606B
:108BA0006A60002306A806930593FFF7B8FB04A8A4
:108BB000FFF7B5FBA2E700BF818C0D00022AF8B5D4
:108BC000054607D0032A18D0012A01D10B6803609B
:108BD0000020F8BD18200E68FBF75DFA044650B17E
:108BE0003146FFF7CBFE3069B6F9147008B103F0D7
:108BF00007F92061A7822C60EAE70468002CE7D01F
:108C000004F11000FFF73DFE2046FEF7B9FA1821E7
:108C1000204600F098FFDBE738B5002383608B68BF
:108C200004460D462BB102229847EB68E360AB681F
:108C3000A360204638BD022A70B5044607D0032A37
:108C400012D0012A01D10B680360002070BD1420EE
:108C50000E68FBF720FA054620B13146FFF7DCFF2E
:108C6000337C2B742560F0E70468002CEDD020469F
:108C7000FEF786FA1421204600F065FFE5E70000C4
:108C8000F0B589B004460D4601A81146FFF723FE52
:108C9000A4B124B21DB1284603F0B2F8054601A8DC
:108CA00003A90395ADF81040FFF778FE03A8FFF77E
:108CB000E8FD02A8FFF733FB09B0F0BD019D0123D9
:108CC000D5E84F2F002A03D1C5E8413F0029F7D14D
:108CD000EFD12B73BFF35B8F6B702B1DBFF35B8FDB
:108CE00053E8006F43E80042002AF9D1BFF35B8FDD
:108CF000002EDED02046FEF7C1FE074660B105F12A
:108D00000C013046FFF716FE3046FEF739FA102107
:108D1000304600F018FFCCE7314603A8FFF77CFF90
:108D20002B7B8DF81C301020FBF7B5F90546D0B130
:108D300087601420FBF7AFF9044678B187600146DD
:108D400003A8FFF730FC059BA268A360069B059271
:108D5000E268E3609DF81C3006922374064BEB60DA
:108D6000064B2C60AB6003A8FEF70AFA00222946E6
:108D70000348FEF78BFEC7E747890D00378C0D00CF
:108D8000D1910D00704710B51821044600F0DBFEAC
:108D9000204610BDF0B5037D062B8DB00E4600F1C8
:108DA00004074FF0000412D000F1080515F8011D6A
:108DB0000A223046FFF719FBAF42044419D0002CB9
:108DC000F4D02E213046FFF7F7FA0444EEE72F23C4
:108DD0006A4639460A208DF80040FEF7F7FC6846DF
:108DE00003F02BF833680246DB6869463046984743
:108DF000044620460DB0F0BD10B5054B04461122C7
:108E000040F8043B002102F0AFFF204610BD00BF38
:108E100058E70D000346074A10B543F8042B01F14B
:108E2000100251F8044B43F8044B9142F9D10A78EF
:108E30001A7010BD58E70D00037D042B04D1406863
:108E4000003818BF01207047062B07D143683BB993
:108E500083682BB9C3681BB90069F1E7002070472C
:108E60000120704710B59DF8084044EA032343EA07
:108E7000024242EA016104234160037510BD000013
:108E800037B5044D05609DF818500095FFF7EAFFCF
:108E900003B030BD58E70D0013B5CB7800938B7845
:108EA0004A780978FFF7DEFF02B010BD41747047C1
:108EB000704708B50021007CFEF7A0FD40EAE07095
:108EC00008BD08B50121007CFEF798FD40EAE0707E
:108ED00008BD08B5007CFEF789FD20EAE07008BDFA
:108EE00008B5007CFEF77AFD20EAE07008BD13B5F6
:108EF0000446007C0191FEF779FD0028019901DC10
:108F0000607C20B1207CFEF781FD20EAE07002B099
:108F100010BD007CFEF782BD10B51421044600F0A0
:108F200012FE204610BD000010B54FF47A730446BF
:108F300008460021C4E90113044B23600123207477
:108F400063741146FEF73AFD204610BD6CE70D0034
:108F5000007C0022FEF73ABD007CFEF767BDFFF7FC
:108F6000FBBF10B514220446002102F0FDFE20468E
:108F700010BD000010B5104C88B003A8FFF7F1FF3A
:108F80002178BFF35B8F11F0010111D120460191CF
:108F9000FBF789F8019958B103AA0848FFF7C4FF05
:108FA0002046FBF785F8064A0649044800F0C6FD4E
:108FB000024808B010BD00BF58E603205CE603205D
:108FC00028E10320B18E0D00002240681146FEF713
:108FD00099BD002240681146FEF7B4BD00224068EA
:108FE0001146FEF7BFBD40680022FEF7B3BD4068E2
:108FF000002281F00101FEF79DBD002340681A4662
:109000001946FEF78FBD002340681A461946FEF741
:1090100081BD002240681146FEF764BD4068002211
:109020000221FEF767BD002340681A46FEF752BDD5
:10903000F0B51B4B036000250F4628331826C0E906
:10904000025589B04360324629460446103002F08A
:109050008BFE78682A462946FEF754FD18B9A060B1
:10906000204609B0F0BD2946324602A8CDE9005598
:1090700002F07AFE02A96846ADF80860FEF796FC99
:1090800010B10123A360EBE7009B019AA360E260AB
:109090000BB90223A36002A92046FFF738FBDFE7E4
:1090A00008E70D00084B10B5282422461846002179
:1090B00002F05AFE054B04804FF0FF32426004225A
:1090C0005A60034A1A6010BD78E6032070E6032058
:1090D0009CE70D0070474174704708B5007CFEF7AF
:1090E000CDFB20EAE07008BD08B5007CFEF79EFBD2
:1090F00020EAE07008BD08B5007CFEF7A7FB40EA57
:10910000E07008BD08B5007CFEF798FB40EAE0700F
:1091100008BD007CFEF7A2BB37B5457C04462DB1E7
:10912000207C03B0BDE83040FEF778BB007C0191A5
:10913000FEF7A4FB00280199F2DC284603B030BDFD
:1091400010B51421044600F0FEFC204610BD0000BE
:1091500010B54FF0000C0446084611464FF47A72E1
:10916000C4E901C2044A22600122207462741A46D2
:10917000FEF74CFB204610BDD0E70D0013B50E4C9A
:109180002178BFF35B8F11F0010112D120460191CC
:10919000FAF789FF019960B1084A094B0948FFF7BE
:1091A000D7FF2046FAF784FF074A0849054800F030
:1091B000C5FC044802B010BDA0E60320A4E60320CD
:1091C00028E70320ACE7032028E10320D5900D0019
:1091D00010B5836804460BB900F06BFDC36898476F
:1091E000A3681BB103222146204698472046102140
:1091F000BDE8104000F0A7BC7047F8B5064615461C
:109200000C468F18BC4206D0336814F8011B9B68CB
:1092100030469847F6E72846F8BD007C0022FEF766
:1092200035BB007C0021FEF739BB007C0021FEF736
:109230003DBB007C0021FEF741BB007C0021FEF716
:1092400045BB10B51421044600F07DFC204610BD3E
:1092500010B54FF47A73044608460021C4E901139F
:10926000034B236020741146FEF740FB204610BDDF
:1092700000E80D0013B503688DF80710DC6B0122C0
:109280004FF0FF330DF10701A04702B010BD10B43D
:109290000368DC6B4FF0FF33A4465DF8044B604776
:1092A00013B5134602688DF80710D46B0DF1070152
:1092B0000122A04702B010BD704738B543691A6853
:1092C000002A054610DAB3F88620B3F884309A42B3
:1092D0000AD103681B699847044628B92B682846B9
:1092E000DB6A9847204638BD0120FCE743691868CF
:1092F000C043C00F70477047064B994210B500F14C
:109300000C0405D0084600F0D7FC002808BF002454
:10931000204610BDD8E60D0010B5AC21044600F083
:1093200012FC204610BDFAF7BABE2DE9F0414FF00D
:10933000000886B01D46C0F8048004460E46174655
:109340004146102202A802F00FFD6B1C09D04FF419
:109350007A70B5FBF0F3CDE9023800FB13535843A4
:109360000490606910230093006802AB41F205028B
:1093700040F6FF71FEF7CAFA002807DAFEF75AFC3A
:1093800003686360002006B0BDE8F08160690023D7
:1093900000683A463146FEF7E1FA031EEEDB184656
:1093A000F1E7000070B54D69054B04468C3544F873
:1093B000043B06460FCD0FC42B682370304670BDAA
:1093C00058E70D0010B54369B3F88620B3F8843030
:1093D0009A42044605D06369B3F88420134418798F
:1093E00010BD03681B6998470028F4D14FF0FF3087
:1093F000F6E710B54369B3F88620B3F884309A4293
:10940000044608D06369B3F88420511CA3F8841083
:109410001344187910BD03681B6998470028F1D1DF
:109420004FF0FF30F6E7F8B543691746B3F88620EA
:10943000B3F884309A4205460E4616D06969B1F8F1
:109440008430B1F88640E41ABC4228BF3C4604335D
:1094500022461944304602F079FC6A69B2F8843039
:109460002344A2F884302046F8BD03681B6998475E
:109470000028E3D14FF0FF34F5E700002DE9F04379
:109480009846036893B00D460024DB6A06461746EB
:10949000984728466B46224621460094FEF706F977
:1094A0000546002863D1009B002B4BD05B69002B45
:1094B00048D006A8FFF7A0FC009B5C696378022BEC
:1094C00004D1211D06A8FFF7E7FC26E00A2B24D1D2
:1094D0001122294601A802F047FCA368002B38D0CE
:1094E00004F108030DF1040C183418685968624639
:1094F00003C20833A3429446F7D1062301A90CA85E
:109500008DF81430FFF786FC0DF1340CBCE80F0029
:1095100007AC0FC4DCF80030237006A8FFF78CFC02
:1095200080B1336807ADD3F82090124B0C930FCD68
:109530000DAC0FC42B6823703A4643460CA9304645
:10954000C84705460098FEF7A9F8284613B0BDE8BD
:10955000F083E368002BC3D14FF6FF70D4F810906E
:10956000FEF73CF98145BBD104F11401AAE7254679
:10957000E8E700BF58E70D0042690023A2F88430F5
:109580004269A2F8863070472DE9F0411F46036812
:109590000C46DB6A8AB0054616469847237DD5F807
:1095A0001480042B0CBF02200A2006220121FEF7A2
:1095B000E5F9C8F800006B691B68002B08DA2B6816
:1095C0002846DB6A0024984720460AB0BDE8F081AF
:1095D0002846FFF7D1FFB7B1002303A9F8B20393E0
:1095E000ADF81030FEF7AAF80028E8D16869062324
:1095F0000093006803AB41F20B0240F6FF71FEF7E7
:1096000085F90028DBD11C22002103A802F0ACFB65
:10961000237D042B1DD14FF407733046ADF80C3079
:10962000FEF7ECF8ADF80E006068FEF7D7F804908E
:109630006B691C22186803A9FEF778F90028BED1CF
:1096400004340FCC6D698C350FC523682B70012451
:10965000BAE740F61C233046ADF80C30FEF7CEF8E2
:1096600005AEADF80E00231D04F114071868596803
:10967000324603C20833BB421646F7D1D8E7000092
:1096800030B54269B2F886308BB004462BB1B2F8DF
:1096900084209A4201D1FFF76FFF616908680028B2
:1096A00018DBB1F886507F2D14D804310823C5F19A
:1096B00080022944FEF742F9002813DD6369B3F8FC
:1096C00086200AB9A3F884206369B3F88620104481
:1096D000A3F886006369B3F88600B3F88430C01A33
:1096E0000BB030BDFEF7A6FA03680B2BF2D0FEF7E5
:1096F000A1FA03680B2BEDD020230025CDE902351C
:10970000FEF798FA03680193084B0949009302AAEF
:109710002B463220FEF792F963691868FEF7FEF8CF
:1097200063694FF0FF321A60D4E700BF27E80D00ED
:1097300020E80D0010B5436904461868002801DBD5
:10974000FEF7ECF863694FF0FF321A60606911228E
:1097500000218C3002F008FB2046BDE81040FFF7E6
:109760000BBF43691868C043C00F704710B5002392
:1097700004460160C0F884308830FFF73DFB204686
:1097800010BD000073B500234FF47A72C0E90132B6
:109790000E4A0361026043610446AC200191FAF76E
:1097A0007AFC051E05F10C0608D00123C5E901333A
:1097B000074B01992B603046FFF7D8FF2046C4E9DC
:1097C0000565FFF7D9FE02B070BD00BF5CE80D0073
:1097D00040E80D0010B54FF0FF310446FFF7D2FF0F
:1097E000204610BD10B504460068002801DBFEF7D6
:1097F00095F8204610BD0C30FFF7F4BF00234068F9
:109800001A46FEF767B9406800220221FEF772B9D6
:10981000002240681146FEF765B9002240681146F3
:10982000FEF770B9002340681A461946FEF772B970
:10983000002340681A461946FEF774B940680022B2
:1098400081F00101FEF776B940680022FEF782B987
:10985000002240681146FEF785B900224068114693
:10986000FEF770B92DE9F043002495B016460D4679
:109870000746FFF7C1FA214618220EA8009402F00D
:1098800073FA4023CDE90C3421466B460CAA3046CE
:10989000FDF70CFF0446002846D102460121686806
:1098A000FEF730F90221804622466868FEF72AF961
:1098B000009E81462146002E36D0002934D173689F
:1098C000022B03D00A2B0BD0F669F4E7B8F1000F96
:1098D00004D0716938460431FFF7DEFA4146F3E7F8
:1098E000B9F1000F01D14946EEE77469102201A8D1
:1098F00002F03AFA06238DF8143001AD04F10803A2
:109900001834186859682A4603C20833A34215461A
:10991000F7D101A906A807ADFFF77CFA0FCD3C1DD2
:109920000FC42B682370DEE70098FDF7B7FE3846BA
:1099300015B0BDE8F0830000024B034A1A60002214
:109940005A607047C0E70320A8E80D00232813B52C
:1099500002D9002002B010BDA0F10B03022B1AD8CF
:10996000174C2178BFF35B8F11F001010BD120461A
:109970000191FAF798FB019928B11248FEF7B0F966
:109980002046FAF795FB0F4B1878FEF707F80028EA
:10999000DFD10120DEE7012809D800F0A7F8002177
:1099A000007CFDF79BFF80F00100C0B2D2E70938D0
:1099B0000128EED8FFF7E2FB007CFDF757FFF2E746
:1099C000C8E70320CCE70320232838B504460D461A
:1099D0000AD8FF2908D0FFF7B9FF28B12946204649
:1099E000BDE83840FDF772BE38BD38B504460D46B7
:1099F000FDF774FEFF2810D0062804D84D2323FA63
:109A000000F0C30709D42046FFF7A0FF28B129467C
:109A10002046BDE83840FDF769BE38BD10B50446A4
:109A2000FDF75CFE031FDBB2012B08D92046FFF7D0
:109A30008DFF20B12046BDE81040FDF75FBE00203D
:109A400010BD0D2810B504469CBF0E34A4B22046AC
:109A5000FFF77CFF50B103212046FDF72FFE0328BE
:109A600004D12046BDE81040FDF758BE002010BDCF
:109A700038B504460D46FFF769FFF0B104212046D2
:109A8000FDF71CFE042805D1A9B22046BDE83840E8
:109A9000FDF73CBE02212046FDF710FE02280CD146
:109AA0002046FDF71BFE012801D0042805D12946D8
:109AB0002046BDE83840FDF739BE38BD38B5002333
:109AC00020254380142304460380856005610649F0
:109AD000284600F03AF804496060284600F035F85E
