:02000002D0002C
:1040000000400D009CF40D00000006000D000501AD
:084010000401BD0B00000000DB
:0440180000E10D00B6
:1040200009480A49884208B505D0094A824202D0A7
:10403000121A08F0BBF80748074A0021121A08F0C4
:10404000C3F8014808BD00BFF0DF0320E4F10D0014
:1040500080E2032080E20320F0E7032070B5074EE2
:10406000074C04F0D9FDA41BA4080025A54200D1EB
:1040700070BD56F8043B98470135F7E7A4F10D00F1
:10408000DCF10D0000F096BD08B501F089F9BDE83E
:10409000084004F083BD03F0C9BE03F0C7BE03F0BF
:1040A000CDBE03F0CBBE0078B0FA80F04009704777
:1040B00001230370704737B504460846019108F0A4
:1040C000ECF86368A268451CE818904208D820689C
:1040D00001992A46184408F069F86068284460602D
:1040E00003B030BD38B584690A4B036005467CB126
:1040F0006368013B63605BB9236820469B6898470F
:10410000A368013BA3601BB923682046DB6898477E
:10411000284638BDA0ED0D0008B503F04BFC034B5D
:104120001860BDE8084003F051BE00BFD4E703208B
:1041300003682BB14268934202D2184608F01FB8B8
:104140000020704738B50568044645B143689D4274
:1041500005D2284608F0A1F8013005442560204624
:1041600038BD10B403460A4639B9D0E900014C1CE9
:104170005C6042545DF8044B70475DF8044BFFF7F8
:104180009ABF000038B504460B46D0E90101256806
:10419000044A091A284403F061FE636801300344AD
:1041A000636038BD14E10D0038B504460B46D0E914
:1041B00001012568044A091A284403F04FFE636888
:1041C00001300344636038BD17E10D0008B503F00A
:1041D000F1FB064B1860064B1B68C01A054B1B68A9
:1041E000984234BF0020012008BD00BFE8E2032050
:1041F0009CE40320B4E403200A4B93ED007A0A4BBD
:104200001A680A4B1B68534307EE903AB8EEC77A18
:10421000F8EE677AB4EEE77AF1EE10FAACBF01205F
:104220000020704728E0032030E0032094E40320BE
:104230002DE9F84305F037FE40F6FE72431E934227
:1042400054D807F0C9FB04460D469FED2B1B45ECE7
:10425000104B06F075F89FED2A1B57EC106B45ECE0
:10426000104B06F06DF82AA3D3E9002330463946F7
:1042700059EC108B07F01AFC27A3D3E9002306465C
:104280000F464046494607F011FC02460B463046B1
:10429000394607F055FA224606460F462B46204679
:1042A000294607F003FC1EA3D3E9002307F0FEFB19
:1042B00002460B463046394607F040FA1AA3D3E9C6
:1042C000002306460F462046294607F0EFFB02462C
:1042D0000B463046394607F033FA15A3D3E90023DD
:1042E00007F02EFA41EC100BBDE8F8839FED060BAA
:1042F000FAE700BFAFF300800000000000001040AC
:104300000000000000000840000000000000000065
:104310001656E79EAF0312BD0BE63DBEC53DE03D20
:104320002139D606C736943EA1F83060902B523F13
:10433000D2DF5893427BA13F08B5086807F01FFF02
:10434000024B003818BF0120187008BDB8E40320E4
:1043500030B503690B440361021D34CAA542A2BFF4
:1043600014681B1B03611160436801688268043391
:1043700001EB8204A34228BF0B464360C36893420B
:10438000BCBF0133C360D0E9030292FBF0F030BD43
:1043900008B500234377006805F072FBBDE80840CC
:1043A00003F082BA2DE9F04301EB02098FB04945D1
:1043B000CDE9051980460D46164680F0928005A885
:1043C0000F88FFF7BFFE0368994540F28A8005A871
:1043D000FFF7AEFE47F276239F42C4B200F0A980F9
:1043E00027D847F261239F427ED047F264239F4241
:1043F00042D046F670539F4228D1634E634FDFF898
:10440000A081059B99456CD905A8FFF791FEC4B220
:1044100005A8FFF797FE059D3146284607F00DFFDA
:104420000146E0B9204605F001FD05A8FFF78AFE28
:10443000E7E747F264739F423FD047F276739F42AB
:1044400000F0878047F261739F425FD00023CDE97F
:10445000013302220092B8F81A20194629E03946A1
:10446000284607F0EAFE28B14146284607F0E5FE57
:104470000028DAD10121D5E70AAB4549079307A8FF
:1044800010230025CDE90853FFF715FE07A82146A4
:10449000FFF778FE204605F0F3FC014607A8FFF77A
:1044A00083FE089BCDE90155013B0093079B2A46FB
:1044B0001421404600F070FA13E005A8FFF742FE11
:1044C000036899450DD9A4B20121204605F0AEFC40
:1044D00005A8FFF72DFE011E18BF0121204605F09B
:1044E000B6FC0FB0BDE8F0830AAB079307A8102312
:1044F00028490025CDE90853FFF7DDFD07A821462F
:10450000FFF740FE204605F0CEFCC6E705A8FFF702
:1045100019FE03689945E4D9A4B20121204605F0AB
:1045200085FC05A8FFF704FE0146204605F0D2FCF5
:10453000D7E720468DF8284003F0B8F903460AA8CB
:1045400023B1154A934201D09847CAE703F0AAF96C
:10455000C7E705A8FFF7F6FD059B8DF81C405D1B1E
:10456000751B2046CDE90A350C9503F0A9F90346E1
:104570000AA907A823B1094A934201D09847B0E796
:1045800003F091F9ADE700BF5DE60D001BE10D0002
:1045900023E10D0026E10D00A5780D00A7780D00A0
:1045A0001FE10D002DE9F0418CB004AF0446052257
:1045B0000068391D04F072F9B8B3052804D0002052
:1045C0002037BD46BDE8F081B7F80520130A43EA5D
:1045D0000223B7F80720A7F8053099B2130A43EA77
:1045E00002231FFA83F8A7F807300029E7D03B79A8
:1045F00023BB03F055F9E0600246607FB7F807304F
:10460000C0B9B7F80510012914D1092B0FD0C82B58
:1046100001D0042BD4D1012562612046657700F0DA
:1046200069FAFFF779FD03F03FF90120C8E703239A
:104630006377C5E7581F18BF0120C1E7B8F5806F41
:1046400003D92046FFF7A4FEEFE708F1080323F0A3
:1046500007036E46ADEB030D04AD206842462946C4
:1046600004F01CF980454FF0000072D1B7F8073014
:10467000E85403F015F93B79E060142B00F09880C2
:104680003BD80F2B00F0948007D8022B3BD0062B91
:1046900044D02046FFF77CFE4BE0112BF9D10023DC
:1046A0003B70B7F807302B449D42C7E9035340D213
:1046B00007F10C002C68FFF745FDFB68B7F8071001
:1046C0005D1B4D1BC7E90535544BFD619C4200F055
:1046D0009F807AD8524B9C4200F0888003339C42E2
:1046E00000F08A80A3F50033063B9C4221D107F1FC
:1046F0001401384603F0D7F81BE0292B1BD0372BC9
:1047000017D01D2BC5D1637F43B9012363772046A2
:1047100000F0F0F9FFF700FD03F0C6F80023C82110
:10472000B7F805200091CDE901331946204600F085
:1047300033F901200DE0A3681BB9202003F076FBBC
:10474000A060B7F80780A8444545C7E9055802D3DB
:104750000020B54634E729462022A06807F0B7FDBF
:10476000A3680025DD7707F11400FFF7EBFC036871
:1047700043451BD2786920B1BB69984214D207F037
:1047800002FD85B2206805F07BF92368A2685A63B0
:104790001D870023637703F083F8A0F59C50083849
:1047A000C4E903006061C4E72846EAE75025E9E769
:1047B0007B68C3F30F236383B7F80720294620469D
:1047C000FFF7F0FD00236383B3E7164B9C4219D03B
:1047D00003F19F6303F5003303F580739C42A8D176
:1047E00007F11401384603F05EF8A2E707F114015F
:1047F000384603F058F89CE707F11401384603F0F7
:1048000052F896E707F11401384603F04CF890E7A8
:1048100007F11401384603F046F88AE76D657461C4
:104820007274630061636F6E2DE9F04104468CB0D1
:104830000D46FFF771FC637F022B00F0A880237FF9
:10484000628B0133DBB223770AB1012516E0022B1C
:10485000FBD8206804F057FFB8B125B9206805F0EF
:10486000B5F8002811DD2046FFF79CFE054600281C
:10487000F4D1206805F004F903F016F8237F013B1A
:10488000237728460CB0BDE8F08103F009F806460E
:10489000206804F038FF677F012F054629D120B931
:1048A00066612046FFF774FDE8E7E36844F63822C6
:1048B000F31A934204D92046FFF76AFD0025DDE78D
:1048C00042F21072934203D82369F31A9342BCD97F
:1048D000636940F6B832F31A9342B6D90023CDE9A2
:1048E000013300931A460621204600F055F8666110
:1048F000ABE7002FA9D16269B21A40B140F6B833D4
:104900009A42A2D9206805F0BBF86777D6E741F252
:1049100088339A4299D9206805F0B2F8D4F800C0DB
:10492000DCF834E0BCF83880BEF1000F0BD02B4629
:1049300042467146604605F007F9431E5D425D41FF
:104940008DB966619AE7134B06930CF120070FCFE0
:1049500007AD0FC53B682B704246734606A96046FB
:1049600004F0B9FFE9E7636805930126184626833A
:1049700007F093FC0022CDE90122059B009032460E
:104980001D21204600F008F82369636176E70025C1
:1049900077E700BF94EC0D002DE9F04F83B000AF36
:1049A000044600683D6B884616469946EB4604F07F
:1049B000AAFE00287FD0B8F11D0F04D84C4B23FA73
:1049C00008F3DB0702D4637F012B74D146B9668BF1
:1049D00036B9238B01339BB2002B71D02383268BF6
:1049E000A8F10C03082B16D8D4E90323934238BF4F
:1049F000134603F1420A02F053FFAAEB000000281D
:104A000060DB00212046FFF70FFF02F049FFAAEB11
:104A100000000028F5DAB9F1000F5AD06B1D7A6B4F
:104A2000002ABA6B08BF002203EB020A0AF107034F
:104A300023F00703ADEB030DBB6BC7F804D0EA18F6
:104A4000C2F3072376BA43EA02238DF80080ADF85B
:104A50000160ADF80330B9F1000F3CD0002D3AD021
:104A60002A4649460DF1050007F0A0FB681D7B6B47
:104A70003BB1BB6B2BB11A467B68796B184407F0CE
:104A800095FB002555452AD2AAEB05027B682068D4
:104A9000B2F5806F28BF4FF48062591904F01DFEF3
:104AA0000646002002F0FAFEBEB9206804F0E8FFD6
:104AB000667702F0F9FE0C37DD46BD46BDE8F08FA3
:104AC00001238BE7217F0029A5D12046FFF7ACFE0B
:104AD000A1E70523A3E70520C9E73544D2E703D0C2
:104AE0002046FFF755FCE6E702F0DAFE2061E2E738
:104AF0004500002000B595B004AB00220193492386
:104B000000930292034B1121FFF746FF15B05DF8A9
:104B100004FB00BF2AE20D00F0B5ADF2244D08AB56
:104B2000002405460F46059305A84FF480630E49FF
:104B30001646CDE90643FFF7BEFA394605A8FFF74A
:104B400021FB314605A8FFF70CFB069B013B0093B8
:104B5000CDE90144059B224614212846FFF71CFF9E
:104B60000DF2244DF0BD00BF29E10D0070B5ADF58B
:104B7000846D08AB002405460E46059305A84FF446
:104B800080630B49CDE90643FFF795FA314605A846
:104B9000FFF7F8FA069B013B0093CDE90144059B22
:104BA000224610212846FFF7F7FE0DF5846D70BDF3
:104BB0002CE10D002DE9F04104F0F8FB4FF4E13158
:104BC00004F0E2FB04F0F2FB04F0E5FB0028F9D06E
:104BD00004F0ECFB0A2103F05FFE0121072005F041
:104BE00025F90121052005F021F90121032005F017
:104BF0001DF90121022005F019F90221042005F018
:104C000015F99FED2F0A2F482F4C01F0B5F840F60B
:104C1000B83002F043FE2D4B636002F041FEA0F578
:104C20009C5023682A4A5A630838C4E9030050227A
:104C300060611A87002642F22737A046206804F0F8
:104C40001FFF667702F02CFE0546637F012B0CD018
:104C500002F026FE401BB84204D800214046FFF770
:104C6000E3FDF2E7637F012BE8D11A4A16481A4E9A
:104C70001A4D0221FFF750FF194A13480221FFF78E
:104C80004BFF11480121FFF771FF3324042005F089
:104C9000F7F801463046FFF75BFB013C2860F5D191
:104CA000104B0522214602201A7005F0D0F80E4B59
:104CB0001A684EF6602353430C4A1360BDE8F08136
:104CC00000009644CCE4032084E20320F4DF0320B8
:104CD0002FE10D003FE10D00F0E2032044E5032049
:104CE00043E10D00C8E403202CE00320B4E40320DA
:104CF000F0B5ADF2244D08AB002405460F460593F0
:104D000005A84FF480630E491646CDE90643FFF728
:104D1000D2F9394605A8FFF735FA314605A8FFF75D
:104D200031FA069B013B0093CDE90144059B2246E5
:104D300014212846FFF730FE0DF2244DF0BD00BFD0
:104D400029E10D0010B50868104C07F018FA07EEBD
:104D5000900AF8EEE77A0E48FDEEE77A0C2117EE9E
:104D6000902AC4ED007AFFF7C3FF0A4A08480221DF
:104D7000FFF7D2FE226806480221FFF7B9FF064A74
:104D800003480221FFF7C8FE10BD00BF94E40320D2
:104D900084E2032053E10D006AE10D0010B50868BC
:104DA0000E4C07F0ECF90E4920604EF660234343A9
:104DB0000B6002460D210B48FFF79AFF0A4A09488B
:104DC0000221FFF7A9FE226806480221FFF790FFA3
:104DD000064A04480221FFF79FFE10BD2CE0032085
:104DE000B4E4032084E203206FE10D0088E10D00AC
:104DF00010B508680C4C07F0C2F90E21024620607D
:104E00000A48FFF775FF0A4A08480221FFF784FEA7
:104E1000226806480221FFF76BFF064A0348022179
:104E2000FFF77AFE10BD00BF9CE0032084E2032060
:104E30008EE10D00A1E10D0010B508680C4C07F0E3
:104E40009EF90F21024620600A48FFF751FF0A4AE7
:104E500008480221FFF760FE226806480221FFF79A
:104E600047FF064A03480221FFF756FE10BD00BF68
:104E700028E0032084E20320A6E10D006AE10D0092
:104E80002DE9F041ADF5846D08AB002405460E46D2
:104E9000059305A84FF48063154910EE108ACDE9FB
:104EA0000643FFF708F905A83146FFF76BF9DDE97E
:104EB0000661059B40468F1B1E4406F09FFD0D4A70
:104EC000CDE900013946304602F0C8FF431C069880
:104ED00003440693013B0093CDE90144059B224620
:104EE00014212846FFF758FD0DF5846DBDE8F081CB
:104EF00029E10D00C0E10D0008B52DED028B214B1D
:104F0000214893ED000A214B9FED218AD3ED007AD1
:104F1000B8EE400A0A2120EE270AFFF7B1FF1D4B29
:104F200019481A680C21FFF7E3FE1B4B164893ED56
:104F3000000AB8EE400A0D2180EE080AFFF7A0FF34
:104F4000164B1148122193ED000AB8EE400A80EE8C
:104F5000080AFFF795FF124B0B48102193ED000A4A
:104F6000B8EE400A80EE080AFFF78AFF0D4B0648AC
:104F7000112193ED000AFFF783FFBDEC028B0120A6
:104F800008BD00BF24E0032084E20320A0E003204A
:104F900000007A4494E40320A0E40320ACE403205E
:104FA000A4E40320ECE20320F0B5ADF2244D08ABFD
:104FB000002405460F46059305A84FF480630E496B
:104FC0001646CDE90643FFF776F8394605A8FFF700
:104FD000D9F8314605A8FFF7C4F8069B013B0093BA
:104FE000CDE90144059B224614212846FFF7D4FC55
:104FF0000DF2244DF0BD00BF29E10D0030B5124D7A
:10500000124C13492A7820788DB00E2303FB02122C
:10501000009203FB00130F4A282102A802F01EFF92
:105020002B78237004F0C2F902A903F020FB02AA36
:1050300009480221FFF7B8FF084A07480221FFF795
:105040006BFD0DB030BD00BFC8E4032098E4032021
:1050500035E00320C6E10D0084E2032038E60D00B0
:105060002DE9F8430021022004F0F1FE02F0A2FC39
:10507000224D234C28602060042004F001FF0146EB
:105080002048214E214FDFF89490DFF88880FFF709
:105090005FF930603368FBB12A6823689B1A3A686D
:1050A000934219D2D9ED007A4046B8EE670A00F073
:1050B0009BFE404600F0F8FC02F07CFC20600420DF
:1050C00004F0DEFE01460F48FFF742F90021306090
:1050D0000F48FFF7A9FBDDE70E4800F0CDFE3220B8
:1050E00003F07CFC2A6823689B1A3A6893429DBFB0
:1050F000094A136001200020BDE8F883C4E40320BE
:10510000E8E20320F0E2032044E5032018E0032056
:1051100084E20320CCE40320A0E4032098E00320F1
:105120002DE9F84F0021022004F091FE02F042FC2C
:10513000534B544D93ED007A534B544CD3ED006ACE
:10514000534E2860B8EEC77A2060C7EE267A5148E1
:10515000DFF840B1DFF860910021B2464FF000085F
:10516000FCEEE77AC6ED007A00F0BDFC42A7D7E975
:105170000067584600F0B5FCDAF80030464A98421D
:105180005ED0296823685B1A11688B4258D202F0FE
:1051900011FC424B206093ED000A5846B8EE400ADD
:1051A00000F022FE584600F07FFC1120FFF740F887
:1051B00051EC100B06F072FF394BD3E90221D3ED0D
:1051C000047A07EE100A914277EE277AA8BF5A6850
:1051D000C3ED047AA8BFD2ED006A5A68A4BF77EE87
:1051E000E67AC3ED047A106018685A68996893EDFE
:1051F000047A00EB810C0432624528BF02465A60F3
:10520000DA688A42BCBF0132DA60D3ED037AF8EE85
:10521000E77AC7EE277A17EE900A06F0EFFB4246D0
:105220004B4606F043FC3B46324606F03FFC06F098
:1052300035FF1C4B002118601B48FFF7F5FA98E773
:10524000144800F019FE322003F0C8FB124A296806
:10525000236812685B1A93420AD2144A1360144BF3
:10526000144A19601368013313600120BDE8F88FF8
:105270000020FBE7AFF30080333333333333F03FA9
:1052800094E40320C4E40320A0E00320E8E2032028
:1052900024E00320CCE4032020E0032098E0032056
:1052A00030E50320E4E2032084E20320ACE40320A1
:1052B0009CE4032030E00320000024402DE9F04767
:1052C0002B4B2C4D1B682C4E2C4C2D4FDFF8B880EF
:1052D000DFF8C4A0DFF8C490B3F57A7F8CBF5B0021
:1052E0004AF6C8732B6002F065FB264B30601B68E2
:1052F00020605B4224483B60002100F0F4FB404604
:1053000000F0EFFB3B6898421ED0326823689B1A7E
:105310002A68934218D202F04DFB2060042004F06A
:10532000AFFD01465046FFF713F89FED180AC9F884
:105330000000404600F058FD404600F0B5FB00215B
:105340001348FFF771FADAE70F4800F095FD0220E5
:10535000012104F07CFD326823689B1A2A6893427D
:105360009DBF0C4A136001200020BDE8F08700BFFC
:10537000A0E403201CE00320C4E40320E8E20320AF
:10538000B0E4032024E00320CCE4032000007AC42E
:1053900084E20320A4E40320F0E2032044E5032098
:1053A0002DE9F0432DED028B794C7A4889B000212C
:1053B000FFF73AFA2378013B052B2BD8DFE803F0FF
:1053C0008503515E6A76744B1B78022B01D0FFF780
:1053D00015FE724D2A68002A1CDDFEF7F7FE90B11B
:1053E0006F4BD3ED007A6F4BF8EEE77A93ED007ACE
:1053F000F4EEC77AF1EE10FA05D8FEF7FDFE10B113
:105400000323237006E02B68002B03DD664B1B781B
:10541000002BF5D103F0CCFA10F0010440F0A88085
:10542000624D03F0C5FA2B68984200F0A180604FEE
:10543000604EDFF8AC91DFF8AC813268A24250DDFB
:1054400099F8000004F02FFD07EE900AF8EEE77AD5
:10545000C8F800000A20E7EC017A013403F0BEFA34
:10546000EBE74D4B1B78032B01D0FFF7C7FDFFF790
:10547000F7FD08B90123C4E70423C2E7464B1B78B4
:10548000042B01D0FFF7BAFDFFF74AFE0028F1D048
:105490000523B6E7404B1B78052B01D0FFF7AEFD87
:1054A000FFF70CFF0028E5D00623AAE73A4B1B784C
:1054B000062B01D0FFF7A2FDFFF71EFD0028D9D073
:1054C000394B00221A7002239BE7334B1B78012BC8
:1054D00001D0FFF793FD384A2E480221FFF71CFB4D
:1054E000FEE733493548364C00F080F932683049E0
:1054F000324884ED000A00F03BF9324B206883ED1E
:10550000000A06F07BFA1EA3D3E9002306F0CEFAC8
:105510001DA3D3E9002306F013F906F0BFFD214EC9
:1055200029493060684603F09FFF684603F0D8FAC7
:10553000264C684684ED000A03F0A2FA2449254867
:10554000B0EE408A96ED000A01F067FB94ED000A88
:105550002149204801F061FB20491E48B0EE480A6D
:1055600001F05BFB1B4801F061FB03F021FA2860AE
:1055700009B0BDEC028BBDE8F08300BFAFF3008043
:10558000B1BFEC9E3C2CA4BF83C0CAA14576544059
:10559000C8E4032084E2032098E4032094E4032079
:1055A0009CE00320ECE20320B8E40320A4E2032003
:1055B00004E30320F0DF0320D4E10D00C9E403205D
:1055C000BCE40320C0E4032070E70320A8E4032028
:1055D000EBE10D0020E50320F4E10D00F9E10D0001
:1055E00034E003202CE503207FB5264D264E2846C7
:1055F000002404F095FA05F11C0003F015FE6C631D
:105600002C8732462149284604F0CAFC204B214908
:105610009C61C3E90054204D9C83C3E90244C3E963
:1056200004440122284601F0D7FA32461B49284695
:1056300004F0B6FC012105220423CDE901210093E9
:105640001748032300F060FB6420FEF726FD154B8E
:105650001922C3E90224C3E90000C820FEF71DFD9A
:10566000114B3222C3E90224104CC3E9000020464A
:1056700000F020F80E493246204604B0BDE87040E4
:1056800004F08EBCA8E2032080E20320E5400D0078
:1056900084E20320FEE10D0020E50320F56B0D0000
:1056A000CCE40320F0E2032030E50320C9E403202A
:1056B000B7560D0070477047DFED087A002393421C
:1056C00005DAB1EC017A013377EE877AF7E707EE76
:1056D000102AB8EEC70A87EE800A70470000000063
:1056E0002DE970432DED028B0C461546FFF7E4FFC4
:1056F0000026B0EE408A002006F080F9AE428046D7
:10570000894613DAF4EC017A77EEC87A013617EE9F
:10571000900A06F073F902460B4606F0C7F94246B6
:105720004B4606F00DF806F0B9FCE5E707EE905A97
:10573000F8EEE77A17EE900A06F060F90B4B0022BC
:1057400005F0FCFF02460B464046494606F0D8FAF3
:1057500041EC100B04F0AAFF51EC100B06F09EFC7C
:10576000BDEC028B00EE100ABDE870830000F03F34
:10577000F8B50D46FFF7A0FF294610EE106AFFF7B7
:10578000AFFF10EE100A06F039F90A4B002206F0BE
:105790008DF9044630460D4606F030F902460B46B8
:1057A0002046294606F0ACFA06F078FC00EE100A16
:1057B000F8BD00BF0000594010B501200B4604465B
:1057C000904210DA93ED007AD3ED017AB4EEE77AE5
:1057D000F1EE10FAC2BF83ED017AC3ED007A044600
:1057E00004330130ECE7012CE7D110BDF8B593008C
:1057F000073323F0070300AFADEB030D6C462546DE
:105800000023934205DA51F8046B45F8046B013329
:10581000F7E72146FFF7D0FF02EBD2735B109B0046
:1058200012F0010F234405BF13ED010AD3ED007AF6
:1058300093ED000A30EE270A04BFF6EE007A20EE60
:10584000270ABD46F8BD0379082B1BD8DFE803F013
:1058500005080B0E111A141A170003681B69184764
:1058600003685B69FBE703689B69F8E70368DB692A
:10587000F5E703681B6AF2E703685B6AEFE7036812
:105880009B6AECE77047062391FBF3F202FB1313CC
:10589000052B1CD8DFE803F003070B0F1317036871
:1058A0009B6804211847036805219B68FAE7036891
:1058B00001219B68F6E7036803219B68F2E7036810
:1058C00002219B68EEE7036806219B68EAE77047C0
:1058D000036801F0070101399B68062905D8DFE854
:1058E00001F006080A0C0E101200012118470521CC
:1058F000FCE70421FAE70621F8E70221F6E70A218E
:10590000F4E70821F2E70921F0E7F8B50579042D5D
:105910000F4607D0082D17D0032D03D0062D14BF36
:1059200002250325441D002614F8010B47FA06F34F
:10593000E178DB0748BF81F00101013604F087FA06
:10594000F3B29D42F0D8F8BD0425EBE710B590F80E
:10595000502003680446002A14BF022100219B68DE
:10596000984794F850202368002A14BF032101218E
:105970009B6820469847206B02F00CF894F8502062
:105980002368002A20469B68BDE8104014BF02210E
:1059900000211847D0ED067AF5EEC07AF1EE10FA44
:1059A000CCBF836BC36B1847036801F00301022966
:1059B0009B6806D0032906D0012914BF02210321C8
:1059C00018470121FCE70021FAE7032391FBF3F3D9
:1059D00003EB4303C91A0129024606D0022904D069
:1059E00031B903689B680421184713689B68FBE77B
:1059F0007047036801F0030102299B6806D0032960
:105A000006D0012914BF0521062118470A21FCE709
:105A10000921FAE710B50379044693B10368002120
:105A20009B68984794F83500FF280AD0012104F0BC
:105A3000FDF994F8341094F83500BDE8104004F0F6
:105A400006BA10BD10B50379044663B3407901214D
:105A500004F0ECF9A079012104F0E8F92379042B92
:105A600001D0082B18D1E079012104F0DFF9207A68
:105A7000012104F0DBF994F83500FF2813D001214F
:105A800004F0D4F994F8341094F8350081F0010151
:105A9000BDE8104004F0DBB9032B01D0062BEAD19E
:105AA000E0790121E5E710BD38B5836A04460BB9FA
:105AB000002038BD01F076FFE36AA26AC31A934260
:105AC0000546F5D394F85030216943B1013123687C
:105AD00021612046DB689847E5620120E9E701394A
:105AE000F5E7006970470023036483620023C0E97F
:105AF00004118361704700002DE9F047D0ED067A6C
:105B000067EEA77AD0E90467044617EE900A05F01D
:105B100075FF8046206A894605F070FF02460B46F5
:105B200005F00EFE02460B464046494606F0E8F8F0
:105B3000BD1B06F06BFA002D57D1012860DC002355
:105B4000A562A3612564BDE8F087002B08DDA842AB
:105B500003DA94F85030002B52D1404220644FE0D9
:105B60004ED0A8424CDA94F85020002A48D05B422C
:105B7000236445E044D0F61B864241DD94F8502072
:105B8000002A3DD1F3E7A06C05F038FF02460B4632
:105B900006460F4605F0D4FD80465046894605F07E
:105BA0001BFF2A4B002205F081FF294B002205F044
:105BB000C7FD02460B464046494606F0A1F802469C
:105BC0000B463046394605F0B9FD06F067FA94ED0C
:105BD000137A07EE900AF4EEC77AF1EE10FAD8BF06
:105BE000F0EE477AC4ED127A17E0236CADDC002B9F
:105BF000C0DDF61B8642B0DD94F85030002BACD1EE
:105C0000D4F840A0BAF1000FBDD1002D636CA3649D
:105C1000D4BF0025012584F8505094ED127ADFEDB1
:105C20000D6AFCEEC77A0AF10103C4ED0A7AC6EEEA
:105C3000877A236494F85030C4ED067A002B82D121
:105C4000F1EE677AC4ED067A7DE700BF00001040F0
:105C50000000F03F0024744942698A4202D0416149
:105C6000FFF74ABF704703691944FFF7F5BF00000B
:105C700010B52DED028B90ED087AB4EE407AF1EE7E
:105C800010FA0446B0EE408A32D0C7EE006AD0ED7A
:105C9000107AF8EEE77A67EEA67AFDEEE77AC0EDC5
:105CA000107A10EE100A05F0A9FE02460B460020FD
:105CB0004FF0804106F024F841EC100B04F0F6FCA4
:105CC0000DA3D3E9002351EC100B05F0EFFE0CA35C
:105CD000D3E9002305F0EAFE06F0E0F984ED088A36
:105CE000BDEC028B60642046BDE81040FFF704BFA6
:105CF000BDEC028B10BD00BF6F1283C0CAA1E53F8F
:105D00000000000080842E41F8B54FF0010C194DC1
:105D100083719DF820709DF8183005604FF07E5615
:105D200000250171C0F830C000214FF0FF0CC37195
:105D30009DF81C308561C0E904110446C661056206
:105D40004662816280F835C0C162427103720164AB
:105D500045648564C66480F85010417241810173C6
:105D60000FB1FFF76FFE2046B7EE000AFFF780FF86
:105D70002046F8BD80E20D00D0B5D0ED077AF4EEF4
:105D8000407AF1EE10FA044629D09FED157A036CA3
:105D900080ED070AC7EE007A002BC0ED137A1EDDF6
:105DA000D0ED067A67EEA77A17EE900A05F026FE88
:105DB0000646206A0F4605F021FE02460B4605F016
:105DC000BFFC02460B463046394605F099FF06F007
:105DD0001DF920642046BDE8D040FFF78DBED0BD40
:105DE000002474490000000010B52DED028BD0EDA9
:105DF000067AF4EE407AF1EE10FA04461AD0D0EDAD
:105E0000077AB1EE678AB4EEC80AF1EE10FA08D448
:105E1000B4EEE70AF1EE10FAD4BFB0EE408AB0EE6D
:105E2000678AB5EE408AF1EE10FA06D10023A3622C
:105E300084ED068ABDEC028B10BD18EE100A05F049
:105E4000DDFD02460B460AA1D1E9000105F058FF2D
:105E500021F00043194606F001F9B5EEC08AF1EED3
:105E600010FACCBF01230023A06284F85030DFE792
:105E70000000000080842E41D0B52DED028B90ED06
:105E8000068AB5EE408AF1EE10FA044624D068EE98
:105E9000087A17EE900A05F0B1FD0646206A0F4613
:105EA00005F0ACFD02460B4605F04AFC02460B46E7
:105EB0003046394605F024FF06F0A8F8B5EEC08A52
:105EC000BDEC028BF1EE10FACCBF411CC143204661
:105ED000BDE8D040FFF7C7BEBDEC028BD0BD017559
:105EE0007047000038B584690A4B036005467CB1F1
:105EF0006368013B63605BB9236820469B689847F1
:105F0000A368013BA3601BB923682046DB68984760
:105F1000284638BDA0ED0D0010B50446FFF7E2FF9E
:105F200020461C2104F041F8204610BD30B5064D36
:105F30000560C0E901130025039B057541F2883512
:105F4000C0E90332856130BDC4E30D002DE9F84F8F
:105F50000D461746804603F029FA1E491E4EDFF80B
:105F60007CA0DFF87CB002F082FB0024304603F016
:105F70009EFD60BB052C2AD098F81430C3B103F005
:105F800015FA514602F060FB03F010FA294602F0C0
:105F90005BFB03F00BFA594602F056FB03F006FADE
:105FA0000A228146214602F06CFB484602F053FB70
:105FB000304603F065FD0023BAB22946304603F0AF
:105FC000C3FD4FF47A7002F009FD0134CEE7BDE85D
:105FD000F88F00BFACE20D0048E50320C4E20D00DD
:105FE000DAE20D0070B504460E4681682E4815466B
:105FF00002F02AFB2D492C4802F026FBE1682A48D2
:1060000002F022FB2A49284802F01EFB31462648AE
:1060100002F01AFB2749244802F016FB29462248C1
:1060200002F012FB2449204802F00EFB237D002BD6
:1060300038D003F0BBF9214902F019FB03F0B6F99F
:106040001F4902F014FB03F0B1F9A16802F0FCFA59
:1060500003F0ACF9154902F0F7FA03F0A7F9E1688B
:1060600002F0F2FA03F0A2F9114902F0EDFA03F09E
:106070009DF9314602F0E8FA03F098F90D4902F073
:10608000E3FA03F093F9294602F0DEFA03F08EF901
:10609000094902F0D9FA03F089F9BDE870400949CD
:1060A00002F0E5BA70BD00BF48E50320EEE20D0046
:1060B000F1E20D0070E40D00AEE40D0009E30D0007
:1060C000F3E20D0008E30D00F8B50E4F044600267C
:1060D000384603F07BFC054690B9A369B3420FDD57
:1060E000012002F07BFCA3690136B342F0DC207D85
:1060F00028B103F05BF9044902F0B9FA2846F8BD6B
:106100000120FCE748E503200EE30D002DE9F047F0
:10611000037D0646884614464BB103F047F92749EC
:1061200002F0A5FA03F042F9254902F0A0FADFF8DF
:10613000A490002540F2BB2A484603F047FC78B102
:10614000484603F07CFB337DC7B22BB103F02EF938
:10615000036839469B689847675501355545EBD12B
:10616000337D23B103F022F9164902F080FA0023AF
:1061700063551549404606F060F868B91349204652
:1061800006F0B8F89FED120A0028F7EE007A18BF63
:10619000B0EE670ABDE8F0877C21204606F040F8A3
:1061A00048B1013005F0E8FF51EC100B05F076FF27
:1061B00000EE100AEEE79FED060AEBE755E30D004F
:1061C00041E30D0054E30D0060E30D0065E30D00B5
:1061D0005F42A2CD48E5032070B52DED028B044649
:1061E0004168224842F234321D46002303F0ACFCE1
:1061F0002046616842F23432FFF7A8FE1B4803F0E4
:1062000082FA48B32946194802F01EFA2046FFF7E1
:106210005BFF054638B9154803F032FC0025BDEC9C
:10622000028B284670BD642001F000FE1049024632
:1062300006462046FFF76AFF3046B0EE408A01F07E
:10624000FDFDDFED0C7AB4EE678AF1EE10FAE2D0D4
:10625000064803F015FCE2E7237D002BDBD003F0BA
:10626000A5F8054902F003FAD5E700BF48E5032089
:1062700060E30D005F42A2CD68E30D0070B52DED27
:10628000028B044600230D46164641681E4842F222
:10629000343203F059FC2046616842F23432FFF791
:1062A00055FE194803F02FFA28B3204632462946F6
:1062B000FFF798FE2046FFF707FF48B912489FED09
:1062C000138A03F0DDFBB0EE480ABDEC028B70BD13
:1062D0004FF42F7001F0AAFD0D49024605462046F5
:1062E000FFF714FF0848B0EE408A03F0C9FB2846C8
:1062F00001F0A4FDE7E7237D002BDFD003F056F883
:10630000044902F0B4F9D9E748E503205F42A2CD81
:1063100086E30D0089E30D0070B505460C464CB1CF
:10632000E1682846FFF7F8FFA6682046FDF7B7FEAC
:106330003446F4E770BD2DE9F047044618201546B1
:106340000F46FDF7A8FE07F1040A6B68D5F8009028
:10635000BA6843610646C0F810905546012352B111
:1063600013694B45CCBF9168D1681546CCBF01235A
:1063700000230A46F3E7A3B1FB68AB4223D02846CB
:1063800003F06BFE8046D8F810304B451BDB3046DF
:10639000FDF785FEC4F80080002323712046BDE888
:1063A000F087A846EFE728698145ACBF00200120AF
:1063B00053462A46314603F052FE7B69266001337C
:1063C0007B610123E9E7AA45EDD10120F0E7000058
:1063D0002DE9FF470D4604464FF42F7001F026FDCE
:1063E0002B7D07464BB102F0E1FF3A4902F03FF93D
:1063F00002F0DCFF384902F03AF9DFF8F0900026AD
:1064000040F2BB2A484603F0E1FA88B1484603F05F
:1064100016FA2B7D5FFA80F82BB102F0C7FF0368F4
:1064200041469B68984707F8068001365645E9D1F2
:106430002B7D23B102F0BAFF284902F018F900259C
:10644000231DC4E90253C4E90435254925713846A2
:10645000BD5506F09BFDDFF89890DFF898A0DFF8B7
:10646000808006467EB34946304605F0E6FE00BB16
:10647000414606F08BFD1B49064605F0DEFE18B9C5
:10648000194B0095019308E0304605F075FE51EC7C
:10649000100B009505F002FE01906A46214602A805
:1064A000FFF749FF4146002006F070FD0135064622
:1064B000D8E75146304605F0C0FE0028F2D14146EB
:1064C00006F064FDDCE7384601F0B8FC204604B075
:1064D000BDE8F08755E30D0041E30D0054E30D00E6
:1064E000F1E20D00AFE30D005F42A2CD48E50320CD
:1064F00065E30D00B4E30D002DE9F041071D98465A
:106500000023C0E90237C0E9047303710D4688B067
:106510004968044616462E4842F2343203F014FB12
:106520002846696842F23432FFF710FD284803F02C
:10653000EAF810B3314642462846FFF753FD284695
:10654000FFF7C2FD0646C0B92148224F03F098FA72
:106550002149404606F01AFD35461F4E002832D02C
:10656000214602A86A4600950197FFF7E4FE3146EE
:106570000020013506F00AFDF0E7294602A8FFF7E2
:1065800027FFA1682046FFF7C7FE049A0023C4E94D
:106590000237C4E904737AB19DF80C102171059992
:1065A000E1600699A26021615760079A626103AABF
:1065B000CDE905220493079302A80499FFF7ACFEE6
:1065C000034803F05DFA204608B0BDE8F08100BF43
:1065D00048E503205F42A2CD67E40D0010B5054CED
:1065E000204603F09DFA2046034A0449BDE81040C6
:1065F00003F0D6BC48E5032080E20320E55E0D00F1
:1066000010B5064B036064330446036101F062FD7C
:10661000204601F059FE204610BD00BF98EB0D004A
:1066200010B50446FFF7ECFF20464C2103F0BDFCFB
:10663000204610BD10B50446006808B1FDF731FDD5
:10664000E06801F0FBFB606810B1042103F0ADFCD1
:10665000204610BD38B504460120607494F910003E
:10666000E56800EB800045F8201094F91010E06810
:1066700001EB810100EB810181ED020A94F9101018
:10668000E06801EB810100EB81014A6094F9102080
:10669000E16802EB820201EB8202D36094F91030D0
:1066A000E26803EB830302EB8303049A1A61237C01
:1066B00001335BB20A2B237408DDA37C23B102F003
:1066C00075FE034901F0D3FF0A23237438BD00BFD0
:1066D000D4E30D0010B510EE100A86B00C4605F09C
:1066E0008DF902460B4601A80A4901F0AFFB01A84B
:1066F0001422002310F8011B202906D0E154013395
:10670000DBB211B9E15406B010BD013A12F0FF023C
:10671000F0D1F8E713E40D002DE9F04F0C4689B0F5
:106720004C49DFF85481DFF85491DFF854A1054655
:10673000204605F08CFD002695F910309E426ADA5D
:10674000EB6806EB860B03EB8B0393ED020A03A9C0
:106750002846FFF7BFFFEB6803A9009153F82B30E1
:1067600022464146204601F071FBEB684FEA8B0759
:106770003B44DB6843B322464946204601F066FBB2
:10678000EB683B441B69002B38D00A2093FBF0F1E7
:1067900091FBF0FC00FB1C1C00FB1131C9B2642210
:1067A00093FBF2F292FBF0FE00FB1E2200915FFAD7
:1067B0008CF32949D2B202A801F048FB274902AB69
:1067C0002246204601F042FBEB681F447B6823B160
:1067D00023492246204601F039FB22462149204622
:1067E00001F034FB013695F91030F6B29E42224694
:1067F0000ADA1D49204601F029FB9DE72246514651
:10680000204601F023FBDFE71649204601F01EFB7E
:1068100000232B7490E7AB7CC3B102F0C7FD134992
:1068200001F025FF02F0C2FD114901F020FF02F046
:10683000BDFD214601F01BFF02F0B8FD0B4901F040
:1068400016FF02F0B3FD0B4901F011FF09B0BDE8DE
:10685000F08F00BF18E40D0040E40D0047E40D0088
:1068600052E40D0061E40D0065E40D0055E30D00F8
:1068700069E40D0039E60D001AE40D002DE40D0069
:106880004CE40D002DE9F04F0C46054689B0524905
:10689000DFF87481DFF87491204616461F4605F034
:1068A000D6FCAB684D4A4E49204601F0CFFA33463C
:1068B0004C4900972246204601F0C8FA4A49494F00
:1068C0002246204601F0C2FA002695F910309E4279
:1068D00064DAEB6806EB860B03EB8B0393ED020A9D
:1068E00003A92846FFF7F6FEEB6803A9009153F8C9
:1068F0002B3022463946204601F0A8FAEB684FEAD1
:106900008B0A53445B6823B122464146204601F07E
:106910009DFAEB685344DB683BB322464946204668
:1069200001F094FAEB6853441B6953B30A2093FBBC
:10693000F0F191FBF0FC00FB1C1C00FB1131C9B213
:10694000642293FBF2F292FBF0FE00FB1E22009108
:106950005FFA8CF32549D2B202A801F077FA2449F4
:1069600002AB2246204601F071FA95F9103001364B
:10697000F6B29E4222460ADA1E49204601F066FA25
:10698000A3E71D492246204601F060FAEDE71B49C6
:10699000204601F05BFA00232B7496E7AB7CC3B171
:1069A00002F004FD164901F062FE02F0FFFC1549F9
:1069B00001F05DFE02F0FAFC214601F058FE02F003
:1069C000F5FC0F4901F053FE02F0F0FC024901F022
:1069D0004EFE09B0BDE8F08F39E60D0072E40D00FF
:1069E00086E40D0092E40D009AE40D0040E40D00F1
:1069F00047E40D0065E40D004CE40D00ACE40D002F
:106A000055E30D0069E40D009FE40D00A5E40D00C1
:106A10002DE9F74304464FF42F701E460F4690466B
:106A200001F004FAE37C013B012B054626D8014620
:106A300043463A462046FFF725FFA37C23B102F0E8
:106A4000B5FC114901F013FE606803680096D3F8A5
:106A5000009039462B464246C8470746284601F073
:106A6000EDF91EB10121304603F09FFA002307B172
:106A700063743846237403B0BDE8F08301462046B2
:106A8000FFF74AFED9E700BFB3E40D0010B5044696
:106A90000120FDF700FB034610B1054A1278027091
:106AA000226820461146BDE81040FFF7B1BF00BF85
:106AB000E8E5032070B505460C4684B1E168284638
:106AC000FFF7F8FFE369A66823B104F1140103227C
:106AD000084698472046FDF7E2FA3446EDE770BDD8
:106AE000F0B58DB0044601A80D4617461E4601F0CC
:106AF0007DF903980130FDF7D0FA0199206005F087
:106B0000A6FB2A4633463946E67405A800F04EFD3A
:106B1000C82001F08BF9E06005A800F06BFC0023B1
:106B2000C4E901050899237406A8FFF7C3FF01A86B
:106B300001F00AFD0DB0F0BD38B500250446058210
:106B4000FFF7CEFF204638BD10B5104B104C002289
:106B50001A70204602F0E4FF20460E4C0E4A0F4900
:106B600003F01EFA204602F0DBFF20460C4C0A4AD6
:106B70000A4903F015FA204601F086FB2046064A32
:106B80000849BDE8104003F00BBA00BFE8E5032058
:106B9000CCE5032064E5032080E20320E55E0D00E0
:106BA00080E5032001660D0073B503720446502092
:106BB000CDE900211E4601F039F960601420FDF78F
:106BC0006AFA054620B1DDE900213346FFF7B4FF3C
:106BD000256002B070BD000038B50025044613469C
:106BE00045728572024AFFF7DFFF204638BD00BFBD
:106BF000C3E40D0038B50446406801F01FF925686C
:106C000035B12846FFF716FD1421284603F0CDF9CB
:106C1000204638BD0068FFF71DBD07B5002300936F
:106C20001A46FFF7F7FF03B05DF804FB0068FFF7B3
:106C30002DBF017570470022011DC0E90221C0E986
:106C4000041202717047000070B506462DED028BEC
:106C5000142001F0EBF80546142001F0E7F8044693
:106C6000304605F01AFB324600230238984214DD04
:106C700012F8011B0D293AD111780A2937D1517820
:106C80000D2934D191780A2931D10433F118142215
:106C9000284605F01CFB00232B750A21284605F029
:106CA000BFFA064628B30A21013005F0B9FA00B34D
:106CB0003146204605F0CBFA204605F0EEFA204496
:106CC000002300F8013C204605F056FA51EC100B69
:106CD00005F0E4F908EE100A204601F0AFF8284666
:106CE00001F0ACF8B0EE480ABDEC028B70BD013388
:106CF000BCE79FED018AF5E75F42A2CD30B5074DB5
:106D000005600025C0E901130575039B41F2883534
:106D100085610525C0E90332057730BD68E60D00C1
:106D20002DE9F74FDFF88C80DFF88CA0DFF88CB00E
:106D300004460D461746002640465FFA86F902F0E3
:106D4000E2FC88BB237F4B452ED9237DCBB102F0DB
:106D50002DFB514601F078FC02F028FB294601F09A
:106D600073FC02F023FB594601F06EFC02F01EFB9F
:106D70000A224946019001F084FC019B184601F06B
:106D80006AFC0023BAB22946404602F0DDFE237DAC
:106D900023B102F00BFB064901F069FC4FF47A7055
:106DA00001F01CFE0136C7E703B0BDE8F08F00BF5D
:106DB000DEE40D00ECE50320C4E20D00DAE20D0094
:106DC0002DE9F0414B1E0C4601F52F7205460021BE
:106DD00003F8011F9342FBD12B7D4BB102F0E6FA81
:106DE000144901F044FC02F0E1FA134901F03FFCC0
:106DF000124F002640F2BB28384602F0E7FD70B182
:106E0000384602F01CFDA0552B7D2BB102F0CEFAC6
:106E10000368A15D9B68984701364645ECD12B7D00
:106E200033B102F0C3FABDE8F041054901F01FBCDF
:106E3000BDE8F08155E30D0041E30D00ECE50320D2
:106E400054E30D00F8B50E4F04460026384602F014
:106E5000BDFD054690B9A369B3420FDD012001F0E5
:106E6000BDFDA3690136B342F0DC207D28B102F0FC
:106E70009DFA044901F0FBFB2846F8BD0120FCE720
:106E8000ECE503200EE30D00F8B50F4602694168FA
:106E900004461D46FFF744FF784802F034FC0646DE
:106EA000002800F0E1807649744801F0CDFB3946B6
:106EB000724801F0C9FB7349704801F0C5FB724983
:106EC0006E4801F0C1FB61686C4801F0BDFB6F4981
:106ED0006A4801F0B9FB6E49684801F0B5FBA1684A
:106EE000664801F0B1FB6949644801F0ADFB6949AE
:106EF000624801F0A9FBE168604801F0A5FB634925
:106F00005E4801F0A1FB64495C4801F09DFB6349C8
:106F10005A4801F099FB284605F0BFF9604906463A
:106F2000564801F091FB0A223146544801F0A9FB72
:106F30005C49524801F088FB2946504801F084FB27
:106F400052494E4801F080FB4C4802F0DBFB237DA8
:106F5000002B69D002F02AFA534901F088FB02F0B5
:106F600025FA474901F070FB02F020FA394601F09A
:106F70006BFB02F01BFA434901F066FB02F016FAC4
:106F8000414901F061FB02F011FA616801F05CFB1C
:106F900002F00CFA3D4901F057FB02F007FA3C49B8
:106FA00001F052FB02F002FAA16801F04DFB02F081
:106FB000FDF9364901F048FB02F0F8F9354901F0D6
:106FC00043FB02F0F3F9E16801F03EFB02F0EEF959
:106FD0002E4901F039FB02F0E9F92F4901F034FBA9
:106FE00002F0E4F92D4901F02FFB02F0DFF92C4902
:106FF00001F02AFB02F0DAF90A22314601F041FBE6
:1070000002F0D4F9274901F01FFB02F0CFF929461D
:1070100001F01AFB02F0CAF91C4901F015FB02F05D
:10702000C5F9224901F023FB2046FFF70BFF237D22
:107030002BB90124114802F023FD2046F8BD02F0CF
:10704000B5F91B490D4D01F012FB284602F0BEFCBC
:107050000028EED0284602F0F2FB044602F0A6F922
:10706000E1B201F0F5FAF0E7247D002CE2D002F065
:107070009DF9104901F0FBFA3446DBE7ECE503200B
:10708000EFE40D0007E50D0013E50D0037E60D00F8
:107090001AE50D0027E50D0036E50D004AE50D0067
:1070A0006BE50D0035E60D007CE50D0098E50D0063
:1070B000B6E50D00D2E50D0070B52DED028B04464E
:1070C00000230E46154641686648502202F03CFDFA
:1070D000204661685022FFF723FE624802F013FB4E
:1070E000002800F0B68060495E4801F0ADFA3146F4
:1070F0005C4801F0A9FA5D495A4801F0A5FA294611
:10710000584801F0A1FA5A49564801F09DFA5949E8
:10711000544801F099FA5849524801F095FA6168CB
:10712000504801F091FA55494E4801F08DFA544902
:107130004C4801F089FAA1684A4801F085FA4F49A4
:10714000484801F081FA4F49464801F07DFAE1686C
:10715000444801F079FA4949424801F075FA4A4930
:10716000404801F071FA237D002B4FD002F01EF948
:107170003D4901F069FA02F019F9314601F064FA6B
:1071800002F014F9394901F05FFA02F00FF92946CB
:1071900001F05AFA02F00AF9354901F055FA02F005
:1071A00005F9344901F050FA02F000F9324901F0D2
:1071B0004BFA02F0FBF8616801F046FA02F0F6F8CB
:1071C0002E4901F041FA02F0F1F82D4901F03CFAA4
:1071D00002F0ECF8A16801F037FA02F0E7F827496D
:1071E00001F032FA02F0E2F8264901F02DFA02F03D
:1071F000DDF8E16801F028FA02F0D8F81F4901F043
:1072000023FA02F0D3F8204901F01EFA2046FFF7D6
:1072100019FE48B913489FED1D8A02F031FCB0EE0B
:10722000480ABDEC028B70BD4FF42F7000F0FEFDDC
:10723000014605462046FFF7C3FD2846FFF704FD3B
:107240000848B0EE408A02F01BFC284600F0F6FD2C
:10725000E5E7237D002BDDD002F0A8F80C4901F012
:1072600006FAD7E7ECE50320FCE50D0011E60D007A
:1072700013E60D0007E50D0013E50D0037E60D00E0
:107280001AE50D0027E50D0017E60D005F42A2CDBF
:107290003AE60D0010B5054C204602F041FC2046B0
:1072A000034A0449BDE8104002F07ABEECE5032031
:1072B00080E20320E55E0D0003681847012A03D031
:1072C000022A03D0002070470160FBE70B680360CF
:1072D000F8E7000013B51C20FCF7DDFE044648B1BA
:1072E000064B07491B6800930968064B42F234328B
:1072F000FEF71CFE204602B010BD00BF90E6032042
:107300008CE6032072E40D0013B52020FCF7C3FEC9
:10731000044640B1054B06491B6800930968054BBC
:107320005022FFF7EBFC204602B010BD90E6032090
:107330008CE6032072E40D0013B51C20FCF7ABFEB5
:10734000044648B1064B07491B6800930968064B81
:1073500042F2343200F0B4F9204602B010BD00BF52
:1073600090E603208CE6032072E40D0013B5142090
:10737000FCF791FE044640B1054B06491B6800939B
:10738000002309681A4600F07DFA204602B010BDBD
:1073900090E603208CE6032010B58368044613B101
:1073A000032201469847204610BD000010B586B064
:1073B00002AB0291044693E803006A4682E80300A8
:1073C00094E8030083E8030092E80300A2680492B3
:1073D000064AA260E2680592054AE26084E803007A
:1073E0001846FFF7D9FF204606B010BDBD720D004C
:1073F000B9720D0070B500F10801C2680B463AB1D0
:10740000157C0478A5422ABF1346D2689268F6E735
:10741000994204D000781A7C904238BF0B46DA6952
:107420000AB902F078FEBDE870401A6A03F1140050
:1074300010478B6870B5164604460D1D01225BB1DE
:1074400030781A7C904234BF9868D8681D4634BFA3
:10745000012200220346F2E792B1CA68AA4203D190
:10746000C4E90035204670BD284602F0F6FD3378A9
:10747000027C9A424FF00003F2D3C4E90003F1E723
:107480002846F4E72DE9F04300F10408856885B04B
:1074900006468946444655B199F800302A7C9A42FE
:1074A00036BFEB68AB6825462C461D46F3E7A04582
:1074B00004D099F80020237C9A422ED22420FCF795
:1074C000EAFD99F8009080F810900023A045074647
:1074D00000F11002C36125D173691BB131690B7CC6
:1074E0004B4509D3314602A8FFF7A3FFDDE902416E
:1074F000002951D0002C4DD188454BD0387C0B7CD5
:1075000098422CBF0020012043460A46394602F02B
:10751000A6FD7369013373613C4604F1140005B0A4
:10752000BDE8F083237C01924B4518D9F3689C4257
:1075300009D0204602F091FD037C019A4B4505D20B
:10754000C36853B9044621461C46D1E7314602A818
:10755000FFF76FFFDDE90234F5E72346F3E71BD2BF
:1075600031698C420BD0204602F064FD037C019A05
:107570004B45054605D9E36853B921461D462C46BF
:10758000B6E7314602A8FFF754FFDDE90251F6E7FE
:107590000146F4E70120B7E707F11400FFF7FCFE0E
:1075A0003846FCF77CFD2746B6E700002DE9F3419D
:1075B000051D0026174600F10802C0E90362C0E974
:1075C000052604468846067203700DF10701012363
:1075D00028468DF80730FFF755FF1649FFF7E6FEFE
:1075E0000DF1070128468DF80760FFF74BFF1249A0
:1075F000FFF7DCFE02230DF1070128468DF8073066
:10760000FFF740FF0D49FFF7D1FE03230DF10701FE
:1076100028468DF80730FFF735FF0949FFF7C6FE0A
:10762000084BC3F80080084B20461F6002B0BDE83D
:10763000F08100BFD5720D0009730D0039730D0084
:107640006D730D008CE6032090E6032010B50E4C00
:10765000204602F065FA20460C4C0D4A0D4902F016
:107660009FFC204602F05CFA20460B4C084A094970
:1076700002F096FC204600F007FE2046044A074927
:10768000BDE8104002F08CBC70E6032008E6032041
:1076900080E20320E55E0D0024E6032001660D0074
:1076A0009FED010A704700BF5F42A2CD0175704790
:1076B0000022011DC0E90221C0E9041202717047D5
:1076C00030B5064D0560C0E901130025039B057523
:1076D00041F28835C0E90332856130BD2CE70D00E9
:1076E00010B5054C204600F0CFFD2046034A044962
:1076F000BDE8104002F054BC94E6032080E2032071
:1077000001660D0010B504464A68024902F0D6FA37
:10771000204610BD70E70320F0B58FB00146064645
:1077200002A81F46FFF7EEFF02A801F09DFDA0B9D9
:10773000337D23B101F03AFE274900F098FFF3238F
:10774000009337223D23A92108A809AD01F0B0FD1F
:107750000FCD03AC0FC42B682370002240F2BD2173
:107760001E4800F0C3FD002242F234311B4800F0F5
:1077700065FC03AD1A4B08930FCD09AC0FC42B6801
:107780001648237042F2343208A900F0CBFD58B9F4
:10779000337D23B101F00AFE124900F068FF0F4863
:1077A00000F098FC002014E0002FF1D0384604F0DF
:1077B00074FD39460246094800F09AFC0028E7D0DB
:1077C000064800F0F5FC0028E2D0044800F082FCF6
:1077D00001200FB0F0BD00BF78E60D0094E6032055
:1077E00094EC0D0004E70D009FED010A704700BF07
:1077F0005F42A2CD017470470022011DC0E9022141
:10780000C0E904120271704730B585B01A46089B72
:107810001B788DF8003002A83C2301F055FB0020B6
:10782000029C00F047FA20B1637813B900F0CEFA59
:10783000FAE76378BFF35B8F651CABB90025039C47
:107840007CB16368013B63605BB9236820469B6839
:107850009847A368013BA3601BB923682046DB68F7
:107860009847284605B030BD002000F023FA20B12B
:107870002B7813B900F0AAFAFAE72378012BDDD1AF
:10788000257BDCE710B5044C0460C0E9011300243B
:10789000029B0474C36010BD44E70D0001F09EB864
:1078A00000F088B8704770477047000003065ABF61
:1078B000024B53F820000020704700BF54E70D0032
:1078C00003065ABF024B53F820000020704700BF48
:1078D00054E90D0008B5024B1B689B68019308BD75
:1078E0006802030008B5024B1B68DB68019308BD02
:1078F0006802030008B5024B1B685B68019308BD72
:107900002C02030008B5024B1B689B68019308BD5D
:107910002C02030008B5024B1B68DB68019308BD0D
:107920002C02030008B5024B1B681B69019308BDBC
:107930002C02030008B5024B1B685B69019308BD6C
:107940002C02030008B5024B1B689B6A019308BD1B
:107950002C02030008B5024B1B681B6B019308BD8A
:107960002C02030008B5024B1B689B6F019308BDF6
:107970002C02030008B5024B1B685B69019308BD2C
:107980006C02030008B5024B1B685B68019308BDDD
:107990001802030008B5024B1B68DB68019308BDA1
:1079A0001802030008B5024B1B681B69019308BD50
:1079B0001802030008B5024B1B685B69019308BD00
:1079C0001802030008B5024B1B689B6D019308BDAC
:1079D0001802030008B5024B1B685B6E019308BDDB
:1079E0001802030008B5024B1B685B6C019308BDCD
:1079F0004802030008B5024B1B689B6C019308BD4D
:107A00004802030008B5024B1B685B69019308BD7F
:107A10006402030008B5024B1B681B6A019308BD92
:107A20006402030008B5024B1B685B6A019308BD42
:107A30006402030008B5024B1B689B6A019308BDF2
:107A40006402030008B5024B1B681B68019308BD64
:107A50003C02030008B5024B1B68DB68019308BDBC
:107A60003C02030008B5024B1B681B69019308BD6B
:107A70003C02030008B5024B1B685B69019308BD1B
:107A80003C02030008B5024B1B689B69019308BDCB
:107A90003C02030008B5024B1B68DB69019308BD7B
:107AA0003C02030008B5024B1B681B6A019308BD2A
:107AB0003C02030008B5024B1B689B6A019308BD9A
:107AC0003C02030008B5024B1B681B6A019308BD0A
:107AD0002802030008B5024B1B685B6A019308BDCE
:107AE0002802030008B5024B1B689B6A019308BD7E
:107AF0002802030008B5024B1B68DB6A019308BD2E
:107B00002802030008B5024B1B681B6B019308BDDC
:107B10002802030008B5024B1B685B6B019308BD8C
:107B20002802030008B5024B1B681B6C019308BDBB
:107B30002802030008B5024B1B685B68019308BD6F
:107B40003802030008B5024B1B689B69019308BD0E
:107B50003802030008B5024B1B68DB69019308BDBE
:107B60003802030008B5024B1B681B6A019308BD6D
:107B70003802030008B5024B1B689B6A019308BDDD
:107B80003802030008B5024B1B68DB6A019308BD8D
:107B90003802030008B5024B1B681B6B019308BD3C
:107BA0003802030008B5024B1B685B6B019308BDEC
:107BB0003802030008B5024B1B689B6B019308BD9C
:107BC0003802030008B5024B1B68DB69019308BD4E
:107BD0003002030008B5024B1B681B6A019308BD05
:107BE0003002030008B5024B1B685B6C019308BDB3
:107BF0007402030008B5024B1B681B68019308BDA3
:107C00004C02030008B5024B1B685B68019308BD7A
:107C10004C02030008B5024B1B681B69019308BDA9
:107C20004C02030008B5024B1B685B69019308BD59
:107C30004C02030008B5024B1B689B69019308BD09
:107C40004C02030008B5024B1B68DB69019308BDB9
:107C50004C02030008B5024B1B681B6A019308BD68
:107C60004C02030008B5024B1B685B6A019308BD18
:107C70004C02030008B5024B1B681B6D019308BD45
:107C80006002030008B5024B1B681B68019308BD26
:107C90002002030008B5024B1B685B68019308BD16
:107CA0002002030008B5024B1B685B69019308BD05
:107CB0002002030008B5024B1B68DB6C019308BD72
:107CC0002002030008B5024B1B685B6D019308BDE1
:107CD0002002030008B5024B1B689B6D019308BD91
:107CE0002002030008B5034B1B68D3F888300193CA
:107CF00008BD00002002030008B5034B1B68D3F841
:107D00009430019308BD00002002030008B5024B27
:107D10001B685B68019308BD4002030008B5024B75
:107D20001B689B68019308BD4002030008B5024B25
:107D30001B68DB68019308BD4002030008B5024BD5
:107D40001B681B69019308BD4002030008B5024B84
:107D50001B685B69019308BD4002030008B5024B34
:107D60001B689B69019308BD4002030008B5024BE4
:107D70001B68DB69019308BD4002030008B5024B94
:107D80001B681B6A019308BD4002030008B5024B43
:107D90001B681B6B019308BD4002030008B5024B32
:107DA0001B685B6B019308BD4002030008B5024BE2
:107DB0001B681B6C019308BD4002030008B5024B11
:107DC0001B685B6C019308BD4002030008B5024BC1
:107DD0001B689B68019308BD4402030008B5024B71
:107DE0001B685B69019308BD4402030008B5024BA0
:107DF0001B68DB69019308BD4402030008B5024B10
:107E00001B681B6A019308BD4402030008B5024BBE
:107E10001B681B6B019308BD4402030008B5024BAD
:107E20001B68DB6B019308BD4402030008B5024BDD
:107E30001B681B68019308BD1C02030008B5024BB8
:107E40001B685B68019308BD1C02030008B5024B68
:107E50001B68DB68019308BD1C02030008B5024BD8
:107E60001B68DB69019308BD1C02030008B5024BC7
:107E70001B68DB6A019308BD1C02030008B5024BB6
:107E80001B681B6B019308BD1C02030008B5024B65
:107E90001B68DB6B019308BD1C02030008B5024B95
:107EA0001B685B6C019308BD1C02030008B5024B04
:107EB0001B68DB6C019308BD1C02030000224068B4
:107EC0001146FFF75BBF002240681146FFF766BF0F
:107ED00040680022FFF75ABF4068002281F001018C
:107EE000FFF744BF002340681A461946FFF736BF24
:107EF000002340681A461946FFF728BF0022406851
:107F00001146FFF71BBF002240681146FFF706BF6E
:107F1000406800220221FFF709BF002340681A468B
:107F2000FFF7F4BE024B03225A60024A1A60704700
:107F3000E0E603205CEB0D0010B504460846217016
:107F4000FFF740FE00236360204610BD10B50446D5
:107F5000006818B1FFF772FF0023236010BD10B551
:107F60000446FFF7F3FF204610BD000010B5094B93
:107F7000094C022200201A60084B2060A080A071EA
:107F8000A360FFF787FE2046054A0649BDE810407A
:107F900002F006B8F4E60320E8E603200000FFFF45
:107FA00080E203205F7F0D0010B40468246BA446B8
:107FB0005DF8044B604703689B6C1847808E7047E0
:107FC000028FC08E101A704707B503688DF807102E
:107FD000DB6801220DF10701984703B05DF804FB4F
:107FE00010B503681B690446984728B1E38EE26B1D
:107FF000591CE186D05C10BD4FF0FF30FBE710B597
:1080000003681B690446984718B1E38EE26BD05CA5
:1080100010BD4FF0FF30FBE7704710B40346084631
:10802000DC6BD98E1A8F0368521ADB6821445DF825
:10803000044B1847A0F11000FFF7EFBF70B50368BD
:108040008CB05B6A04460E461546984701231C22F5
:10805000002105A8029304F0B7F840F61C2330462F
:10806000ADF81430FFF7E6FC1122ADF8160002213E
:108070000A20FFF79FFD0028606125DB04220092A3
:1080800002AB40F6FF71FFF75DFDE8B995B10390D3
:10809000ADF8100003A9E8B2FFF76CFCA0B9062305
:1080A0000093606903AB41F20B0240F6FF71FFF7EA
:1080B00049FD48B960691C2205A9FFF73BFD18B9C5
:1080C000656401200CB070BD236820465B6A984748
:1080D0000020F7E710B504464069002801DBFFF7F0
:1080E00039FD4FF0FF3363610023E386238710BD22
:1080F00070B50546C06BEE8E68B12B6C9C1B94422C
:1081000028BF14462246304404F050F8EB8E234436
:10811000EB86204670BD0446F1E7D0B503681B69C5
:1081200004460F461646984790B1236820461B69BF
:108130009847E38EE16B8642A8BF06461944324653
:10814000384604F033F8E38E3344E3863046D0BD3E
:108150004FF0FF36FAE7000070B50446054B44F8CF
:10816000043B01F1200506460FCD0FC42B68237098
:10817000304670BD94EC0D00F0B59646026889B0AB
:10818000976A0A4A02921C1D8C4606460FCC03AD24
:108190000FC523682B70BDF838300093724602ABD0
:1081A00061463046B84709B0F0BD00BF94EC0D0001
:1081B000F0B5036889B09F6A0C4B029300F120066A
:1081C00004460FCE03AD0FC533682B70A38EE28E2D
:1081D000E16B0093204602ABB84723680546DB6994
:1081E00020469847284609B0F0BD00BF94EC0D002A
:1081F00038B5054614462B7D062B084610D140F6AF
:108200001C231380FFF716FC08342B1D24F8060CE2
:10821000143553F8042B44F8042BAB42F9D138BD84
:10822000042BFCD14FF404731380FFF703FC608030
:108230006868FFF7EFFB6060F1E72DE9F0438BB072
:1082400003AF4FF01C09984604460D461646002120
:108250004A46384603F0B8FFBDF848103A46404653
:10826000FFF7C6FF9DF80D3053B1CDE90079606985
:10827000002332462946FFF795FC0BB0BDE8F0839A
:108280004FF0FF30F9E7000038B500254FF47A735E
:10829000C0E901530B4B03F108026C3303614FF04B
:1082A000FF330446026043611C3000F0BDFF4FF411
:1082B0000073C4E91035E5862587E56384F84850E6
:1082C000204638BD90EB0D0010B590F848300446BC
:1082D00023B1C06B10B1012101F067FE0023E363FD
:1082E00084F848302364E386238710BD70B50446C4
:1082F00016460D46FFF7E8FF0023E66323642EB120
:108300002564206C003818BF012070BD002DF8D006
:108310002846FBF7C2FE0123E06384F848300028BA
:10832000EFD0EDE7F8B51746C26B05460C461AB913
:10833000016C09B1FFF7DAFF04340FCC05F1200618
:108340000FC6236833700023286CAF86EB862B871B
:10835000F8BD37B5C26B04460B462AB9016C19B19A
:108360000193FFF7C3FF019BE16B0022E2862287A6
:1083700041B1226C32B12068056B2046A847002825
:10838000C8BF208723681B69204603B0BDE8304082
:10839000184770B586B0064601AD684600F094FFF8
:1083A0000FCD341D0FC42B682370304606B070BD4E
:1083B000F0B54378022B8DB005460C46174604D124
:1083C000011D2046FFF7E5FF22E00A2B25D11122EF
:1083D000002101A803F0F8FEAB6803B305F1080320
:1083E00001AE05F1180C18685968324603C208330B
:1083F00063451646F7D1062301A906A807AE8DF8F6
:10840000143000F01FFF0FCE04340FC43368237004
:108410001FB16888FFF706FB38800DB0F0BDEB6830
:10842000002BDBD14FF6FF702E69FFF7F3FA86427F
:10843000D4D105F11401C4E72DE9F04117468EB0FF
:108440000022064601AB084611460192FFF74AFAA0
:10845000041E20DB019B2BB35B691BB302A800F059
:10846000E3FE019B0022586902A9FFF7A1FF02A8C1
:1084700000F0FAFEB0B1336803ADD3F838800B4B8F
:1084800008930FCD09AC0FC42B6823703A4608A996
:108490003046C04704460198FFF71CFA20460EB04C
:1084A000BDE8F0814FF0FF34F5E700BF94EC0D001C
:1084B0002DE9F047D0F81490B9F1000F90B00546BF
:1084C0000E4690461C463CDB00293AD04FF01C0A71
:1084D00009AF52460021384603F076FECDF80CA0D5
:1084E000DCB100224FF47A70B4FBF0F3CDE9043232
:1084F00000FB13435843102307920690009341F268
:1085000006026B4440F6FF714846FFF71BFB04462A
:1085100020B1204610B0BDE8F087082403ABCDE9B8
:1085200000736869234642463146FFF72BFB041E61
:10853000EFDB05F1340205F11C013846FFF738FF87
:10854000E7E74FF0FF34E4E710B504460068FFF7B3
:1085500075FC204610BD10B5036804469B6898471B
:10856000A368013BA3602BB923682046DB68BDE804
:108570001040184710BD10B50446006808B1FFF759
:1085800039FA204610BD0B68036013B15A680132F6
:108590005A60704710B50446006828B14368013B33
:1085A00043600BB9FFF7D7FF204610BD13B50B464C
:1085B0000246D0E900016C4684E8030093E803001A
:1085C00082E8030094E8030083E8030002B010BDD2
:1085D00010B5064C002320462360FFF703FA20461F
:1085E000034A0449BDE8104001F0DABCF8E6032074
:1085F00080E2032077850D00F8B506460D468F18FA
:108600000024BD420CD0336815F8011B9B6830462E
:108610009847031E01DB1C44F3E7002C08BF1C46EF
:108620002046F8BD13B50446084659B1019103F040
:1086300034FE23680199DB680246204602B0BDE89B
:108640001040184702B010BD08B5FFF7EBFF08BD9A
:1086500003689B68184738B50D210546FFF7F8FFFA
:108660000A2104462846FFF7F3FF204438BD38B5F9
:108670000546FFF7D7FF04462846FFF7ECFF2044E6
:1086800038BD30B58BB000238DF82430012A98BF57
:108690000A2209AC0D46B1FBF2F101FB125303F0C3
:1086A000FF03092B94BF30333733DBB2AA4204F8FF
:1086B000013DEFD92146FFF7B5FF0BB030BD0000FB
:1086C0002DE9F74F55EC104B06460F4610EE102AD9
:1086D00010EE100A2B46294603F082FC40B15349A4
:1086E0003046FFF79FFF8246504603B0BDE8F08F4B
:1086F00025F000494E4B4FF0FF322046494603F02B
:108700006FFC48B94A4B4FF0FF322046494603F010
:1087100049FC08B94749E3E7474B4FF06042204620
:10872000294603F053FC08B14449D9E7444B4FF0C4
:1087300060422046294603F02BFC0028F4D1002299
:1087400000232046294603F023FCD0B12D213046DA
:10875000FFF77EFF05F1004382461D463949DFF8E9
:10876000EC904FF0000B00204FF000085FFA8BF305
:108770009F4208D942464B4603F0C2FA0BF1010B67
:10878000F4E78246EAE722462B4602F0D9FF0D467F
:10879000044603F063FC804603F00EF902460B46E4
:1087A0002046294602F0CAFF0A2204460D463046FA
:1087B0004146FFF766FF824427B123493046FFF761
:1087C00031FF8244DFF884904FF00008013FFFB290
:1087D000FF2F89D042464B462046294603F066F9D2
:1087E00004460D4603F012FCB0F1000B1ADA2D21FD
:1087F0003046FFF72DFFCBF1000103460A22304639
:108800000193FFF73EFF019B18448244584603F052
:10881000E3F802460B462046294602F08FFF044645
:108820000D46D3E759460023E8E700BF08EC0D00EA
:10883000FFFFEF7F0CEC0D00FFFFEF4110EC0D0090
:10884000FFFFEFC10000E03FB4E50D000000244051
:1088500038B5044610EE100ACDB203F0CFF841EC63
:10886000100B29462046BDE83840FFF729BF10B558
:108870000446FFF79FF8E060236820465B6998474D
:10888000002808DAFFF796F8E368C01AA368984250
:10889000F2D34FF0FF3010BD81607047F8B5064647
:1088A0000D4617460024BC4207D03046FFF7DFFFD5
:1088B000031E02DB2B550134F5E72046F8BD00000E
:1088C000014B024A1A607047FCE6032014EC0D00CD
:1088D0002DE9F041154ADFF86080D2E90032C01876
:1088E00042EB0101124AD2E90032C61841EB0207FD
:1088F000D8E90023BB4208BFB2428CB013D003A911
:108900006846CDE90067FFF7D1FA089B094D03F2ED
:108910006C7303AC08930FCC0FC50FCC0FC5C8E91F
:10892000006723682B600CB0BDE8F08130E70320BE
:1089300028E7032004E7032038E7032008B50020D8
:10894000FFF764FA28B1FFF749FA80F00100C0B2DE
:1089500008BD0120FCE710B50020FFF733F80446FE
:10896000A0B9FFF78FF9012810D12046FFF7B2F91F
:1089700060B9FFF7E3FF10B9FFF728FAF9E7FFF74F
:10898000DDFFBDE810400020FFF71CB8204610BDF9
:108990001FB5FFF7E0FF10220021684603F014FC2A
:1089A00000216846FFF716F8009805B05DF804FB53
:1089B00008B5FFF7EDFFC117FFF78AFF014B5868B5
:1089C00008BD00BF04E70320024B1A68024B1A607F
:1089D000704700BFA4E0032000E703200021FFF759
:1089E00061B910B50446FEF7D7FC204610BD000063
:1089F0000348044A04490023836001F0D1BA00BF50
:108A000040E7032080E20320E3890D007047007BEC
:108A10007047037B4BB10369B3F1004F05D0806908
:108A2000B0F1004018BF0120704700207047036874
:108A30001B6A184770B503680D461B6906469847C0
:108A400002212846FFF704FF2C2104462846FFF7A1
:108A5000FFFD336804449B6930469847022128464D
:108A6000FFF7F6FE204470BDA0F10400FFF7E2BF5F
:108A700010B52021044601F098FA204610BD0000F0
:108A8000037B7BB14369002B0CDB07EE903A9FED33
:108A9000077AF8EEE77A87EE870ADFED057A20EEAF
:108AA000270A7047BFEE000A704700BF00FF7F47EC
:108AB0000000C842037B63B10369B3F1004F08D0E3
:108AC00007EE903A9FED047AF8EEE77A87EE870A90
:108AD00070479FED020A70470000C8420000000086
:108AE000037B7BB1C369002B0CDB07EE903A9FED53
:108AF000077AF8EEE77A87EE870ADFED057A20EE4F
:108B0000270A7047BFEE000A704700BF00FF7F478B
:108B10000000C842037B63B18369B3F1004F08D002
:108B200007EE903A9FED047AF8EEE77A87EE870A2F
:108B300070479FED020A70470000C8420000000025
:108B400030B50D4600F108040FCD0FC495E80300C1
:108B500084E80300012030BD014B1860704700BF5E
:108B6000ACE0032008B50B4B43B100F01FFC0368D9
:108B70001B699847002801DDAFF30080064B43B125
:108B800000F008FD03681B699847002801DDAFF37A
:108B9000008008BD000000000000000008B5FFF7DD
:108BA000E1FFFEF707FF014B186008BDD4E7032083
:108BB0000248034A0349121A03F0F8BA00F40320EA
:108BC00004F40320E0F10D0007B5002300931A46DA
:108BD0006FF07701FFF790F803B05DF804FB000039
:108BE00007B543880A2B08D0502B0BD1094B1B68C3
:108BF0004BB103B05DF804EB1847FFF7E5FF03B096
:108C00005DF804FB002300931A466FF07701FFF72D
:108C100073F8F4E754E7032038B5124C1248134DAB
:108C20000021FFF73BF92368AB42114B0CBF012237
:108C300000221A7002D0FFF7BBFF2560FEF7A2FEEC
:108C4000044603F0C9FA0B4B13B12046AFF3008082
:108C500000210848FFF7E2F8BDE838400648002147
:108C6000FFF740B800F40320598B0D001E1C279A13
:108C700050E7032000000000E18B0D00704700204A
:108C8000704710B51021044601F08FF9204610BD41
:108C900008B5FFF7F6FF08BD30B500224FF69C740B
:108CA000026084808D888C800C68858004600A60F6
:108CB00030BD10B504460068FFF7C0F8204610BD6F
:108CC00038B5C468F4B12378022B03D104F10C0049
:108CD000FFF7EFFF656835B12846FEF75DFB102111
:108CE000284601F062F9A56835B12846FEF754FB25
:108CF0001021284601F059F920461421BDE83840DA
:108D000001F053B938BD73B50E46044656F8043B1E
:108D100000930D4601A83146FFF735FC019A009BF0
:108D20006260236001A8002301930093FFF732FCE7
:108D30003046FFF72FFC2846082101F036F920467F
:108D400002B070BD826810B50AB901F0E4F9BDE85F
:108D50001040C368184708B5006800F11001FFF71C
:108D6000F1FF08BD826810B50AB901F0D4F9BDE879
:108D70001040C368184708B5006800F11001FFF7FC
:108D8000F1FF08BD38B500230446036010200D46EE
:108D9000FBF781F928B10123C0E90133024B0360DD
:108DA000C5602060204638BD78EC0D0038B5002342
:108DB00083608B6804460D462BB102229847EB680E
:108DC000E360AB68A360204638BD0000F0B589B011
:108DD00004686846FFF760FF4FF00203D4E84F2FA6
:108DE000002A03D1C4E8413F0029F7D125D104F17D
:108DF0000C0569462846FFF74FFFBFF35B8F012341
:108E00006370002004F10803BFF35B8F53E8006F29
:108E100043E80002002AF9D1BFF35B8F6EB1FEF781
:108E200049FF78B129463046FFF78CFF3046FEF700
:108E3000B3FA1021304601F0B8F86846FFF739FF61
:108E400009B0F0BD314602A8FFF7B0FFE068B4F901
:108E5000105008B103F004FA06901020ADF81C5031
:108E6000FBF719F90546E8B1002787601820FBF7E2
:108E700012F9044688B10146876002A8FFF796FB05
:108E8000049BA268A360059B049206A9E268E360C4
:108E900004F110000592FFF7FFFE084BEB60084B52
:108EA0002C60AB6006A8FFF704FF02A8FEF774FA77
:108EB000002229460348FEF705FFB7E7578D0D004E
:108EC000ED8F0D001D960D002DE9F0478AB0054687
:108ED0009DF848900C4617469846FEF77FFF07AE70
:108EE000824638BB4FF62E73059005A93046ADF883
:108EF0001830FFF7D1FE1420FBF7CDF8044648B137
:108F0000022303700123C0E901AA437031460C30EB
:108F1000FFF7C2FE2846214640F8044BFFF732FF18
:108F20003046FFF7C6FE05A8FFF7C3FE28460AB085
:108F3000BDE8F0870C234FF0000A1420CDE908AA01
:108F40000793FBF7A8F8014628B1C0E901AA80F809
:108F500000A080F801A004A80391FFF713FF224BA3
:108F600008930820FBF797F8824628B1039B40F846
:108F7000043B04A9FFF707FB00965FFA89F342461A
:108F800039462046CDF824A0FEF738FFB8B9039B38
:108F90005B7803F0FF0293B94FF69C7305A903A811
:108FA0000592ADF81830FFF711FF05A8FFF781FE15
:108FB00005A80999FFF7A7FE06A8FFF7EBFA039BA0
:108FC000059304A906A8FFF7DEFA059B069A2B6015
:108FD0006A60002306A806930593FFF7DBFA04A84E
:108FE000FFF7D8FAA2E700BFB1900D00022AF8B54A
:108FF000054607D0032A18D0012A01D10B68036067
:109000000020F8BD18200E68FBF745F8044650B163
:109010003146FFF7CBFE3069B6F9147008B103F0A2
:109020001FF92061A7822C60EAE70468002CE7D0D2
:1090300004F11000FFF73DFE2046FEF7ADF91821C0
:10904000204600F0B2FFDBE738B5002383608B6871
:1090500004460D462BB102229847EB68E360AB68EB
:10906000A360204638BD022A70B5044607D0032A03
:1090700012D0012A01D10B680360002070BD1420BA
:109080000E68FBF708F8054620B13146FFF7DCFF14
:10909000337C2B742560F0E70468002CEDD020466B
:1090A000FEF77AF91421204600F07FFFE5E7000083
:1090B000F0B589B004460D4601A81146FFF723FE1E
:1090C000A4B124B21DB1284603F0CAF8054601A890
:1090D00003A90395ADF81040FFF778FE03A8FFF74A
:1090E000E8FD02A8FFF756FA09B0F0BD019D012383
:1090F000D5E84F2F002A03D1C5E8413F0029F7D119
:10910000EFD12B73BFF35B8F6B702B1DBFF35B8FA6
:1091100053E8006F43E80042002AF9D1BFF35B8FA8
:10912000002EDED02046FEF7C5FD074660B105F1F2
:109130000C013046FFF716FE3046FEF72DF91021E0
:10914000304600F032FFCCE7314603A8FFF77CFF42
:109150002B7B8DF81C301020FAF79DFF0546D0B10F
:1091600087601420FAF797FF044678B187600146BC
:1091700003A8FFF71BFA059BA268A360069B059254
:10918000E268E3609DF81C3006922374064BEB60A6
:10919000064B2C60AB6003A8FEF7FEF800222946C0
:1091A0000348FEF78FFDC7E7778D0D0067900D0030
:1091B0001D960D00704710B51821044600F0F5FE0D
:1091C000204610BDF0B5037D062B8DB00E4600F194
:1091D00004074FF0000412D000F1080515F8011D36
:1091E0000A223046FFF74DFAAF42044419D0002C52
:1091F000F4D02E213046FFF72BFA0444EEE72F235C
:109200006A4639460A208DF80040FEF7FBFB6846A7
:1092100003F043F833680246DB68694630469847F6
:10922000044620460DB0F0BD10B5054B0446112292
:1092300040F8043B002102F0C7FF204610BD00BFEC
:1092400094EC0D000346074A10B543F8042B01F1D6
:10925000100251F8044B43F8044B9142F9D10A78BB
:109260001A7010BD94EC0D00037D042B04D14068EE
:10927000003818BF01207047062B07D143683BB95F
:1092800083682BB9C3681BB90069F1E700207047F8
:109290000120704710B59DF8084044EA032343EAD3
:1092A000024242EA016104234160037510BD0000DF
:1092B00037B5044D05609DF818500095FFF7EAFF9B
:1092C00003B030BD94EC0D0013B5054B0360CB78B3
:1092D00000938B784A780978FFF7DCFF02B010BD65
:1092E00094EC0D0041747047704708B50021007C74
:1092F000FEF7A0FC40EAE07008BD08B50121007C43
:10930000FEF798FC40EAE07008BD08B5007CFEF767
:1093100089FC20EAE07008BD08B5007CFEF77AFC05
:1093200020EAE07008BD13B50446007C0191FEF709
:1093300079FC0028019901DC607C20B1207CFEF7DB
:1093400081FC20EAE07002B010BD007CFEF782BC18
:1093500010B51421044600F028FE204610BD000080
:1093600010B54FF47A73044608460021C4E901138E
:10937000044B23600123207463741146FEF73AFC0A
:10938000204610BDA8EC0D00007C0022FEF73ABC80
:10939000007CFEF767BCFFF7FBBF10B51422044644
:1093A000002102F011FF204610BD000010B5104C46
:1093B00088B003A8FFF7F1FF2178BFF35B8F11F0AE
:1093C000010111D120460191FAF76DFE019958B1C2
:1093D00003AA0848FFF7C4FF2046FAF769FE064AC9
:1093E0000649044800F0DCFD024808B010BD00BF8B
:1093F00058E703205CE7032080E20320E9920D0098
:10940000002240681146FEF799BC002240681146D0
:10941000FEF7B4BC002240681146FEF7BFBC4068AE
:109420000022FEF7B3BC4068002281F00101FEF784
:109430009DBC002340681A461946FEF78FBC0023E6
:1094400040681A461946FEF781BC00224068114662
:10945000FEF764BC406800220221FEF767BC0023CF
:1094600040681A46FEF752BC70B5134B03601825CE
:10947000303386B00E4643602A4600210446083049
:1094800002F0A2FE002270681146FEF757FC78B188
:1094900000212A46684602F097FE69460020ADF892
:1094A0000050FEF79FFB18B969462046FFF748FBBE
:1094B000204606B070BD00BF3CEC0D00084B10B557
:1094C000282422461846002102F07EFE054B048027
:1094D0004FF0FF32426004225A60034A1A6010BD06
:1094E00078E7032070E70320D8EC0D007047417443
:1094F000704708B5007CFEF7DDFA20EAE07008BD91
:1095000008B5007CFEF7AEFA20EAE07008BD08B5A9
:10951000007CFEF7B7FA40EAE07008BD08B5007CB1
:10952000FEF7A8FA40EAE07008BD007CFEF7B2BA88
:1095300037B5457C04462DB1207C03B0BDE83040F2
:10954000FEF788BA007C0191FEF7B4FA0028019971
:10955000F2DC284603B030BD10B51421044600F0FB
:1095600024FD204610BD000010B54FF0000C04464D
:10957000084611464FF47A72C4E901C2044A2260D7
:109580000122207462741A46FEF75CFA204610BD70
:1095900014ED0D00F7B51B4C26684EB98420FAF780
:1095A0007AFD054618B18422314602F00DFE256091
:1095B000154D2F684FB98420FAF76DFD064618B196
:1095C0008422394602F000FE2E60104E3178BFF33F
:1095D0005B8F11F0010112D130460191FAF763FD62
:1095E000019960B122682B680948FFF7BDFF30463A
:1095F000FAF75EFD074A0849054800F0D1FC044827
:1096000003B0F0BDA4E70320A8E70320A0E70320F0
:10961000ACE7032080E20320ED940D0010B58368D1
:1096200004460BB900F077FDC3689847A3681BB1E7
:10963000032221462046984720461021BDE81040CD
:1096400000F0B3BC7047F8B5064615460C468F18B7
:10965000BC4206D0336814F8011B9B68304698471B
:10966000F6E72846F8BD007C0022FEF72BBA007C06
:109670000021FEF72FBA007C0021FEF733BA007CF0
:109680000021FEF737BA007C0021FEF73BBA10B587
:109690001421044600F089FC204610BD10B54FF49B
:1096A0007A73044608460021C4E90113034B236082
:1096B00020741146FEF736FA204610BD44ED0D0029
:1096C00013B503688DF80710DC6B01224FF0FF33F0
:1096D0000DF10701A04702B010BD10B40368DC6BA8
:1096E0004FF0FF33A4465DF8044B604713B51346B3
:1096F00002688DF80710D46B0DF107010122A04715
:1097000002B010BD704738B543691A68002A054693
:1097100010DAB3F88620B3F884309A420AD103688D
:109720001B699847044628B92B682846DB6A984786
:10973000204638BD0120FCE743691868C043C00FCC
:1097400070477047064B994210B500F10C0405D0E4
:10975000084600F0E3FC002808BF0024204610BDA6
:1097600000EC0D0010B5AC21044600F01EFC2046B4
:1097700010BDFAF794BC2DE9F0414FF0000886B017
:109780001D46C0F8048004460E4617464146102286
:1097900002A802F019FD6B1C09D04FF47A70B5FBDA
:1097A000F0F3CDE9023800FB13535843049060698D
:1097B00010230093006802AB41F2050240F6FF71EE
:1097C000FEF7C0F9002807DAFEF760FB0368636064
:1097D000002006B0BDE8F0816069002300683A46C9
:1097E0003146FEF7D7F9031EEEDB1846F1E700001D
:1097F00070B54D69054B04468C3544F8043B06466C
:109800000FCD0FC42B682370304670BD94EC0D0053
:1098100010B54369B3F88620B3F884309A42044601
:1098200005D06369B3F884201344187910BD036828
:109830001B6998470028F4D14FF0FF30F6E710B5C8
:109840004369B3F88620B3F884309A42044608D0BE
:109850006369B3F88420511CA3F884101344187969
:1098600010BD03681B6998470028F1D14FF0FF3005
:10987000F6E7F8B543691746B3F88620B3F88430A5
:109880009A4205460E4616D06969B1F88430B1F89F
:109890008640E41ABC4228BF3C46043322461944A1
:1098A000304602F083FC6A69B2F884302344A2F89F
:1098B00084302046F8BD03681B6998470028E3D12F
:1098C0004FF0FF34F5E742690023A2F88430426983
:1098D000A2F8863070472DE9F0411F4603680C4618
:1098E000DB6A8AB0054616469847237DD5F8148072
:1098F000042B0CBF02200A2006220121FEF75AF990
:10990000C8F800006B691B68002B08DA2B68284632
:10991000DB6A0024984720460AB0BDE8F08128465B
:10992000FFF7D1FFB7B1002303A9F8B20393ADF855
:109930001030FEF71FF80028E8D16869062300936D
:10994000006803AB41F20B0240F6FF71FEF7FAF834
:109950000028DBD11C22002103A802F035FC237D66
:10996000042B1DD14FF407733046ADF80C30FEF7D1
:1099700061F8ADF80E006068FEF74CF804906B6972
:109980001C22186803A9FEF7EDF80028BED10434A4
:109990000FCC6D698C350FC523682B700124BAE795
:1099A00040F61C233046ADF80C30FEF743F805AE08
:1099B000ADF80E00231D04F11407186859683246EB
:1099C00003C20833BB421646F7D1D8E730B5426927
:1099D000B2F886308BB004462BB1B2F884209A429C
:1099E00001D1FFF770FF61690868002818DBB1F842
:1099F00086507F2D14D804310823C5F180022944F4
:109A0000FEF7B8F8002813DD6369B3F886200AB9B9
:109A1000A3F884206369B3F886201044A3F8860075
:109A20006369B3F88600B3F88430C01A0BB030BD58
:109A3000FEF72CFA03680B2BF2D0FEF727FA036827
:109A40000B2BEDD020230025CDE90235FEF71EFAC1
:109A500003680193084B0949009302AA2B46322060
:109A6000FEF708F963691868FEF774F863694FF048
:109A7000FF321A60D4E700BF6BED0D0064ED0D00FE
:109A800010B5436904461868002801DBFEF762F848
:109A900063694FF0FF321A606069112200218C3037
:109AA00002F092FB2046BDE81040FFF70CBF43696F
:109AB0001868C043C00F704710B50023044601600A
:109AC000C0F884308830FFF7AFFB204610BD00009F
:109AD00073B500234FF47A72C0E901320E4A036174
